:020000040800F2
:1000000020090020DD28000879020008132C0008D0
:10001000850200088D02000895020008000000001B
:100020000000000000000000000000009D02000829
:10003000A902000800000000B5020008C102000883
:100040003D2900083D2900083D2900083D290008F8
:100050003D2900083D2900083D2900083D290008E8
:100060003D2900083D2900083D2900083D290008D8
:100070003D2900083D2900083D2900083D290008C8
:100080003D2900083D2900083D2900083D290008B8
:100090003D2900083D2900083D2900083D290008A8
:1000A0003D2900083D2900083D2900083D29000898
:1000B0003D2900083D2900083D2900083D29000888
:1000C0003D2900083D2900083D2900083D29000878
:1000D0003D2900083D2900083D2900083D29000868
:1000E0003D2900083D2900083D29000800000000C6
:1000F0000000000000000000000000000000000000
:1001000000000000000000003D2900083D29000813
:100110003D2900083D2900083D2900083D29000827
:100120003D2900083D2900083D2900083D29000817
:100130003D2900083D2900083D2900083D29000807
:100140003D2900083D2900083D2900083D290008F7
:100150005FF808F180B582B000AF7860144B1B786F
:100160005A1CD1B2124A11701A467B68D9B2114B8F
:1001700099540F4B1B781A460E4B002199540C4B87
:100180001B7801330F2B05D87B680A2B02D07B68C4
:10019000002B0AD1064B00221A70064B002219468A
:1001A000042002F02DFD0346002B0837BD4680BD1C
:1001B000440400203404002080B500AF084A084BF6
:1001C0001B6843F010031360032000F02FF9002098
:1001D00000F008F803F048FB0023184680BD00BF7C
:1001E0000020024080B582B000AF786001F04EFD83
:1001F0000246094BA3FB02239B09184600F03EF977
:10020000002279684FF0FF3000F01CF900231846F7
:100210000837BD4680BD00BFD34D621080B400AF2B
:10022000044B1B680133034A136000BFBD4680BC0A
:10023000704700BF4804002080B400AF024B1B6829
:100240001846BD4680BC70474804002080B584B085
:1002500000AF78600023FB60FFF7EEFFF86000BF9F
:10026000FFF7EAFF0246FB68D21A7B689A42F7D38F
:1002700000BF1037BD4680BD80B400AF00BFBD4693
:1002800080BC704780B400AFFEE700BF80B400AF11
:10029000FEE700BF80B400AFFEE700BF80B400AF50
:1002A00000BFBD4680BC704780B400AF00BFBD46F4
:1002B00080BC704780B400AF00BFBD4680BC7047B3
:1002C00080B500AFFFF7AAFF00F000F900BF80BDC6
:1002D00080B485B000AF78607B6803F00703FB60F3
:1002E0000C4BDB68BB60BA684FF6FF031340BB6082
:1002F000FB681A02BB68134343F0BF6343F4003347
:10030000BB60044ABB68D36000BF1437BD4680BCE5
:10031000704700BF00ED00E080B400AF044BDB6825
:1003200003F4E0631B0A1846BD4680BC704700BF5B
:1003300000ED00E080B483B000AF03463960FB718C
:1003400097F90730002B0BDA0D49FB7903F00F0307
:10035000043B3A68D2B21201D2B20B441A7609E0D9
:10036000084997F907303A68D2B21201D2B20B4469
:1003700083F8002300BF0C37BD4680BC704700BF28
:1003800000ED00E000E100E080B489B000AFF8606B
:10039000B9607A60FB6803F00703FB61FB69C3F196
:1003A0000703042B28BF0423BB61FB690433062B1E
:1003B00002D9FB69033B00E000237B610122BB699A
:1003C00002FA03F35A1EBB681A407B699A40012166
:1003D0007B6901FA03F3591E7B680B4013431846EF
:1003E0002437BD4680BC704780B582B000AF7860CE
:1003F0007B68013BB3F1807F01D301230FE00A4A00
:100400007B68013B53600F214FF0FF30FFF792FFF5
:10041000054B00229A60044B07221A6000231846FD
:100420000837BD4680BD00BF10E000E080B582B057
:1004300000AF78607868FFF74BFF00BF0837BD4614
:1004400080BD00BF80B586B000AF0346B9607A605A
:10045000FB7300237B61FFF75FFF78617A68B968FF
:100460007869FFF791FF024697F90F301146184659
:10047000FFF760FF00BF1837BD4680BD80B582B072
:1004800000AF78607868FFF7AFFF0346184608377B
:10049000BD4680BD80B483B000AF78607B68042B1C
:1004A00006D1094A084B1B6843F00403136005E0BA
:1004B000054A054B1B6823F00403136000BF0C378B
:1004C000BD4680BC704700BF10E000E080B500AFC3
:1004D00000F002F800BF80BD80B400AF00BFBD4691
:1004E00080BC704780B400AF1A4A1A4B1B6843F0B7
:1004F000010313601749174B5A68174B13404B60A1
:10050000144A144B1B6823F0847323F48033136064
:10051000104A104B1B6823F4802313600D4A0D4BC7
:100520005B6823F4FE0353600A4A0A4B1B6823F0FE
:10053000A0531360074B4FF47F029A60054B0022D3
:10054000DA62064B4FF000629A6000BFBD4680BC85
:10055000704700BF001002400000FFF000ED00E017
:1005600090B5FDB000AF3B1D18600023C7F8EC311B
:100570003B1D1B681B6803F00103002B00F0828108
:10058000AF4B5B6803F00C03042B0BD0AC4B5B68E8
:1005900003F00C03082B61D1A94B5B6803F4803393
:1005A000002B5BD04FF40033C7F8FC30D7F8FC3099
:1005B00093FAA3F3C7F8F830D7F8F830B3FA83F317
:1005C0005BB243F020035BB2DBB25B09DBB2012B11
:1005D00002D19B4B1B681BE04FF40033C7F8D031AE
:1005E000D7F8D03193FAA3F3C7F8F430D7F8F43042
:1005F000B3FA83F35BB243F020035BB2DBB25B0977
:10060000DBB2022B02D18E4B1B6A01E08C4B5B6A82
:100610004FF40032C7F8CC21D7F8CC2192FAA2F1DE
:1006200007F1F002116007F1F0021268B2FA82F2EB
:1006300052B242F0200252B2D2B202F01F02D340B4
:1006400003F00103002B00F01C813B1D1B689B681D
:10065000002B40F01681012301F083B83B1D1B687D
:100660009B68B3F5803F06D1754A754B1B6843F410
:100670008033136030E03B1D1B689B68002B0CD15E
:100680006F4A6F4B1B6823F4803313606C4A6C4BCA
:100690001B6823F4802313601EE03B1D1B689B68CE
:1006A000B3F5A02F0CD1664A654B1B6843F4802339
:1006B0001360634A624B1B6843F4803313600BE0A2
:1006C0005F4A5F4B1B6823F4803313605C4A5C4BCA
:1006D0001B6823F4802313603B1D1B689B68002B61
:1006E00066D0FFF7A9FDC7F8EC010AE0FFF7A4FD0B
:1006F0000246D7F8EC31D31A642B02D9032301F058
:1007000030B84FF40033C7F8C831D7F8C83193FA7E
:10071000A3F207F1EC031A6007F1EC031B68B3FACC
:1007200083F35BB243F020035BB2DBB25B09DBB265
:10073000012B02D1424B1B681DE04FF40033C7F878
:10074000E831D7F8E83193FAA3F207F1E8031A6029
:1007500007F1E8031B68B3FA83F35BB243F02003AD
:100760005BB2DBB25B09DBB2022B02D1344B1B6AFA
:1007700001E0334B5B6A4FF40032C7F8E421D7F84D
:10078000E42192FAA2F107F1E402116007F1E40218
:100790001268B2FA82F252B242F0200252B2D2B2DF
:1007A00002F01F02D34003F00103002B9ED069E04A
:1007B000FFF742FDC7F8EC010AE0FFF73DFD0246F6
:1007C000D7F8EC31D31A642B02D9032300F0C9BF48
:1007D0004FF40033C7F8E031D7F8E03193FAA3F2D1
:1007E00007F1E0031A6007F1E0031B68B3FA83F333
:1007F0005BB243F020035BB2DBB25B09DBB2012BDF
:1008000002D10F4B1B681FE04FF40033C7F8DC31F7
:10081000D7F8DC3193FAA3F207F1DC031A6007F191
:10082000DC031B68B3FA83F35BB243F020035BB2D3
:10083000DBB25B09DBB2022B04D1014B1B6A03E084
:1008400000100240B94B5B6A4FF40032C7F8D82160
:10085000D7F8D82192FAA2F107F1D802116007F176
:10086000D8021268B2FA82F252B242F0200252B2B8
:10087000D2B202F01F02D34003F00103002B9CD13F
:1008800000E000BF3B1D1B681B6803F00203002B48
:1008900000F0A181A54B5B6803F00C03002B0BD08B
:1008A000A24B5B6803F00C03082B7CD19F4B5B6869
:1008B00003F48033002B76D10223C7F8D431D7F864
:1008C000D43193FAA3F207F1D4031A6007F1D403E9
:1008D0001B68B3FA83F35BB243F020035BB2DBB275
:1008E0005B09DBB2012B02D1904B1B681CE0022399
:1008F000C7F8A031D7F8A03193FAA3F207F1D003DB
:100900001A6007F1D0031B68B3FA83F35BB243F0BC
:1009100020035BB2DBB25B09DBB2022B02D1834B5B
:100920001B6A01E0814B5B6A0222C7F89C21D7F861
:100930009C2192FAA2F107F1CC02116007F1CC02DE
:100940001268B2FA82F252B242F0200252B2D2B22D
:1009500002F01F02D34003F00103002B07D03B1D20
:100960001B685B69012B02D0012300F0FABE6F4CBB
:100970006E4B1B6823F0F8023B1D1B689969F82336
:10098000C7F89831D7F8983193FAA3F007F1C80364
:10099000186007F1C8031B68B3FA83F301FA03F385
:1009A0001343236017E13B1D1B685B69002B00F0BC
:1009B00096800123C7F89431D7F8943193FAA3F2C3
:1009C00007F1C4031A6007F1C4031B68B3FA83F389
:1009D0009B0003F1844303F584031A46012313604B
:1009E000FFF72AFCC7F8EC010AE0FFF725FC0246F6
:1009F000D7F8EC31D31A022B02D9032300F0B1BE91
:100A00000223C7F8C431D7F8C43193FAA3F207F12F
:100A1000C0031A6007F1C0031B68B3FA83F35BB22B
:100A200043F020035BB2DBB25B09DBB2012B02D1E6
:100A30003E4B1B681CE00223C7F8C031D7F8C03119
:100A400093FAA3F207F1BC031A6007F1BC031B6819
:100A5000B3FA83F35BB243F020035BB2DBB25B0912
:100A6000DBB2022B02D1314B1B6A01E02F4B5B6AD8
:100A70000222C7F8BC21D7F8BC2192FAA2F107F1F3
:100A8000B802116007F1B8021268B2FA82F252B2EB
:100A900042F0200252B2D2B202F01F02D34003F061
:100AA0000103002BA1D0214C204B1B6823F0F8023E
:100AB0003B1D1B689969F823C7F8B831D7F8B831DE
:100AC00093FAA3F007F1B403186007F1B4031B68AD
:100AD000B3FA83F301FA03F3134323607BE00123AA
:100AE000C7F8B431D7F8B43193FAA3F207F1B003E1
:100AF0001A6007F1B0031B68B3FA83F39B0003F19C
:100B0000844303F584031A4600231360FFF794FB24
:100B1000C7F8EC010CE0FFF78FFB0246D7F8EC3189
:100B2000D31A022B04D9032300F01BBE001002408D
:100B30000223C7F8B031D7F8B03193FAA3F207F126
:100B4000AC031A6007F1AC031B68B3FA83F35BB222
:100B500043F020035BB2DBB25B09DBB2012B02D1B5
:100B6000BE4B1B681CE00223C7F8AC31D7F8AC3190
:100B700093FAA3F207F1A8031A6007F1A8031B6810
:100B8000B3FA83F35BB243F020035BB2DBB25B09E1
:100B9000DBB2022B02D1B14B1B6A01E0AF4B5B6AA7
:100BA0000222C7F8A821D7F8A82192FAA2F107F1EA
:100BB000A402116007F1A4021268B2FA82F252B2E2
:100BC00042F0200252B2D2B202F01F02D34003F030
:100BD0000103002B9FD13B1D1B681B6803F008031A
:100BE000002B00F0FB803B1D1B68DB69002B7CD0D9
:100BF0000123C7F8A431D7F8A43193FAA3F207F17F
:100C0000A0031A6007F1A0031B68B3FA83F39B00EB
:100C10001A46934B13441A4601231360FFF70CFB4B
:100C2000C7F8EC010AE0FFF707FB0246D7F8EC3102
:100C3000D31A022B02D9032300F093BD0223C7F875
:100C40009031D7F8903193FAA3F207F19C031A6020
:100C500007F19C031B68B3FA83F35BB243F06003B4
:100C60005BB2DBB25B09DBB2012B02D17B4B1B68B1
:100C70001CE00223C7F88C31D7F88C3193FAA3F229
:100C800007F198031A6007F198031B68B3FA83F31E
:100C90005BB243F060035BB2DBB25B09DBB2022BF9
:100CA00002D16E4B1B6A01E06C4B5B6A0222C7F8F3
:100CB0008821D7F8882192FAA2F107F194021160F5
:100CC00007F194021268B2FA82F252B242F0600264
:100CD00052B2D2B202F01F02D34003F00103002B44
:100CE000A1D00120FFF7B2FA78E00123C7F88431E0
:100CF000D7F8843193FAA3F207F190031A6007F151
:100D000090031B68B3FA83F39B001A46544B1344B9
:100D10001A4600231360FFF78FFAC7F8EC010AE0C8
:100D2000FFF78AFA0246D7F8EC31D31A022B02D920
:100D3000032300F016BD0223C7F88031D7F88031B5
:100D400093FAA3F207F18C031A6007F18C031B6876
:100D5000B3FA83F35BB243F060035BB2DBB25B09CF
:100D6000DBB2012B02D13D4B1B681CE00223C7F80C
:100D70007C31D7F87C3193FAA3F207F188031A602B
:100D800007F188031B68B3FA83F35BB243F0600397
:100D90005BB2DBB25B09DBB2022B02D12F4B1B6AC9
:100DA00001E02E4B5B6A0222C7F87821D7F8782140
:100DB00092FAA2F107F18402116007F1840212682D
:100DC000B2FA82F252B242F0600252B2D2B202F0F1
:100DD0001F02D34003F00103002BA1D13B1D1B6870
:100DE0001B6803F00403002B00F03D811B4A1B4BE2
:100DF000DB6943F08053D361184BDB6903F0805209
:100E000007F108031A6007F108031B68154A154B20
:100E10001B6843F480731360FFF70EFAC7F8EC0108
:100E20000AE0FFF709FA0246D7F8EC31D31A642B2F
:100E300002D9032300F095BC0A4B1B6803F48073AE
:100E4000002BEED03B1D1B681B69012B0CD1034A04
:100E5000024B1B6A43F00103136235E000100240AD
:100E600080044242007000403B1D1B681B69002B40
:100E70000CD1B74AB64B1B6A23F001031362B44A84
:100E8000B34B1B6A23F0040313621DE03B1D1B6878
:100E90001B69052B0CD1AE4AAD4B1B6A43F0040312
:100EA0001362AB4AAA4B1B6A43F0010313620BE0C7
:100EB000A74AA74B1B6A23F001031362A44AA44B61
:100EC0001B6A23F0040313623B1D1B681B69002B84
:100ED00065D0FFF7B1F9C7F8EC010CE0FFF7ACF90A
:100EE0000246D7F8EC31D31A41F28832934202D944
:100EF000032300F036BC0223C7F87431D7F87431ED
:100F000093FAA3F207F180031A6007F180031B68CC
:100F1000B3FA83F35BB243F040035BB2DBB25B092D
:100F2000DBB2012B02D18A4B1B681CE00223C7F8FD
:100F30007031D7F8703193FAA3F207F17C031A608D
:100F400007F17C031B68B3FA83F35BB243F0400301
:100F50005BB2DBB25B09DBB2022B02D17C4B1B6ABA
:100F600001E07B4B5B6A0222C7F86C21D7F86C2149
:100F700092FAA2F107F17802116007F17802126883
:100F8000B2FA82F252B242F0400252B2D2B202F04F
:100F90001F02D34003F00103002B9FD063E0FFF753
:100FA0004BF9C7F8EC010BE0FFF746F90246D7F81A
:100FB000EC31D31A41F28832934201D90323D0E3B2
:100FC0000223C7F86831D7F8683193FAA3F207F122
:100FD00074031A6007F174031B68B3FA83F35BB2FE
:100FE00043F040035BB2DBB25B09DBB2012B02D101
:100FF000574B1B681CE00223C7F86431D7F86431F3
:1010000093FAA3F207F170031A6007F170031B68EB
:10101000B3FA83F35BB243F040035BB2DBB25B092C
:10102000DBB2022B02D14A4B1B6A01E0484B5B6AE0
:101030000222C7F86021D7F8602192FAA2F107F1E5
:101040006C02116007F16C021268B2FA82F252B2BD
:1010500042F0400252B2D2B202F01F02D34003F07B
:101060000103002BA0D13B1D1B68DB6A002B00F0A5
:10107000C081374B5B6803F48033002B0DD0344BB9
:101080005B6803F00C03082B07D1314BDB6A03F4D8
:101090008033002B01D0012363E33B1D1B68DB6A17
:1010A000022B40F023812A4B1B6803F08053002B56
:1010B0000AD0274BDB6A03F0F0023B1D1B685B6B19
:1010C0009A4201D001234CE34FF08063C7F85C31B2
:1010D000D7F85C3193FAA3F207F168031A6007F1BD
:1010E00068031B68B3FA83F39B0003F1844303F5A1
:1010F00084031A4600231360FFF79EF8C7F8EC013B
:1011000009E0FFF799F80246D7F8EC31D31A642BBF
:1011100001D9032325E34FF00063C7F85831D7F80E
:10112000583193FAA3F207F164031A6007F16403DC
:101130001B68B3FA83F35BB243F020035BB2DBB20C
:101140005B09DBB2012B05D1014B1B6820E000BF1E
:10115000001002404FF00063C7F85431D7F8543103
:1011600093FAA3F207F160031A6007F160031B68AA
:10117000B3FA83F35BB243F020035BB2DBB25B09EB
:10118000DBB2022B02D1B84B1B6A01E0B64B5B6AA3
:101190004FF00062C7F85021D7F8502192FAA2F11F
:1011A00007F15C02116007F15C021268B2FA82F288
:1011B00052B242F0200252B2D2B202F01F02D34029
:1011C00003F00103002B9CD1A749A74BDB6A23F056
:1011D000F0023B1D1B685B6B1343CB62A249A24B21
:1011E000DB6A23F470623B1D1B681B6B1343CB62ED
:1011F0004FF08063C7F84C31D7F84C3193FAA3F223
:1012000007F158031A6007F158031B68B3FA83F318
:101210009B0003F1844303F584031A460123136002
:10122000FFF70AF8C7F8EC0109E0FFF705F80246F6
:10123000D7F8EC31D31A642B01D9032391E24FF094
:101240000063C7F84831D7F8483193FAA3F207F1A1
:1012500054031A6007F154031B68B3FA83F35BB2BB
:1012600043F020035BB2DBB25B09DBB2012B02D19E
:101270007D4B1B681DE04FF00063C7F84431D7F881
:10128000443193FAA3F207F150031A6007F15003B7
:101290001B68B3FA83F35BB243F020035BB2DBB2AB
:1012A0005B09DBB2022B02D16F4B1B6A01E06E4B74
:1012B0005B6A4FF00062C7F84021D7F8402192FAEC
:1012C000A2F107F14C02116007F14C021268B2FA68
:1012D00082F252B242F0200252B2D2B202F01F02A7
:1012E000D34003F00103002B9FD082E05E4A5E4BA7
:1012F000DB6A23F48033D3624FF08063C7F83C315C
:10130000D7F83C3193FAA3F207F148031A6007F1CA
:1013100048031B68B3FA83F39B0003F1844303F58E
:1013200084031A4600231360FEF786FFC7F8EC011A
:1013300009E0FEF781FF0246D7F8EC31D31A642B9F
:1013400001D903230DE24FF00063C7F83831D7F815
:10135000383193FAA3F207F144031A6007F144030A
:101360001B68B3FA83F35BB243F020035BB2DBB2DA
:101370005B09DBB2012B02D13B4B1B681DE04FF038
:101380000063C7F83431D7F8343193FAA3F207F188
:1013900040031A6007F140031B68B3FA83F35BB2A2
:1013A00043F020035BB2DBB25B09DBB2022B02D15C
:1013B0002D4B1B6A01E02C4B5B6A4FF00062C7F8B3
:1013C0003021D7F8302192FAA2F107F13C021160E6
:1013D00007F13C021268B2FA82F252B242F02002E5
:1013E00052B2D2B202F01F02D34003F00103002B2D
:1013F0009FD13B1D1B681B6A002B00F0B1811A4B6B
:101400005B6803F00C03082B00F0A8813B1D1B68F0
:101410001B6A022B40F024814FF08073C7F82C31F7
:10142000D7F82C3193FAA3F207F138031A6007F1C9
:1014300038031B68B3FA83F39B0003F1844303F57D
:1014400084031A4600231360FEF7F6FEC7F8EC018A
:101450000CE0FEF7F1FE0246D7F8EC31D31A022B6E
:1014600004D903237DE100BF001002404FF0007358
:10147000C7F82831D7F8283193FAA3F207F13403DB
:101480001A6007F134031B68B3FA83F35BB243F0CD
:1014900020035BB2DBB25B09DBB2012B02D1B34BA1
:1014A0001B681DE04FF00073C7F82431D7F82431D2
:1014B00093FAA3F207F130031A6007F130031B68B7
:1014C000B3FA83F35BB243F020035BB2DBB25B0998
:1014D000DBB2022B02D1A54B1B6A01E0A34B5B6A76
:1014E0004FF00072C7F82021D7F8202192FAA2F11C
:1014F00007F12C02116007F12C021268B2FA82F295
:1015000052B242F0200252B2D2B202F01F02D340D5
:1015100003F00103002B9CD13B1D1B685B6AB3F5F4
:10152000803F11D19149914BDA6A3B1D1B685B6882
:101530001343CB628D498D4BDB6A23F00F023B1DB9
:101540001B68DB681343CB628848884B5B6823F4D5
:1015500074123B1D1B68596A3B1D1B689B6A0B4339
:10156000134343604FF08073C7F81C31D7F81C3128
:1015700093FAA3F207F128031A6007F128031B6806
:10158000B3FA83F39B0003F1844303F584031A4603
:1015900001231360FEF750FEC7F8EC0109E0FEF7E7
:1015A0004BFE0246D7F8EC31D31A022B01D90323A4
:1015B000D7E04FF00073C7F81831D7F8183193FA15
:1015C000A3F207F124031A6007F124031B68B3FA9E
:1015D00083F35BB243F020035BB2DBB25B09DBB2A7
:1015E000012B02D1614B1B681DE04FF00073C7F85F
:1015F0001431D7F8143193FAA3F207F120031A60DB
:1016000007F120031B68B3FA83F35BB243F02003B6
:101610005BB2DBB25B09DBB2022B02D1534B1B6A1C
:1016200001E0524B5B6A4FF00072C7F81021D7F807
:10163000102192FAA2F107F11C02116007F11C02BD
:101640001268B2FA82F252B242F0200252B2D2B220
:1016500002F01F02D34003F00103002B9FD07FE074
:101660004FF08073C7F80C31D7F80C3193FAA3F21E
:1016700007F118031A6007F118031B68B3FA83F324
:101680009B0003F1844303F584031A46002313608F
:10169000FEF7D2FDC7F8EC0109E0FEF7CDFD0246EA
:1016A000D7F8EC31D31A022B01D9032359E04FF0BC
:1016B0000073C7F80831D7F8083193FAA3F207F19D
:1016C00014031A6007F114031B68B3FA83F35BB2C7
:1016D00043F020035BB2DBB25B09DBB2012B02D12A
:1016E000224B1B681DE04FF00073C7F80431D7F898
:1016F000043193FAA3F207F110031A6007F1100303
:101700001B68B3FA83F35BB243F020035BB2DBB236
:101710005B09DBB2022B02D1144B1B6A01E0134BB5
:101720005B6A4FF00072C7F80021D7F8002192FAE7
:10173000A2F107F10C02116007F10C021268B2FA73
:1017400082F252B242F0200252B2D2B202F01F0232
:10175000D34003F00103002B9FD101E0012300E0FF
:101760000023184607F5FA77BD4690BD00100240E9
:1017700080B598B000AF786039600023FB65A54B59
:101780001B6803F007023B689A4210D2A149A14BA3
:101790001B6823F007023B6813430B609D4B1B68DB
:1017A00003F007023B689A4201D001238FE17B6876
:1017B0001B6803F00203002B08D09749964B5B6827
:1017C00023F0F0027B689B6813434B607B681B68C7
:1017D00003F00103002B00F027817B685B68012B7D
:1017E00046D14FF400337B637B6B93FAA3F33B63E7
:1017F0003B6BB3FA83F35BB243F020035BB2DBB223
:101800005B09DBB2012B02D1834B1B6817E04FF45D
:101810000033BB65BB6D93FAA3F3FB62FB6AB3FABB
:1018200083F35BB243F020035BB2DBB25B09DBB254
:10183000022B02D1784B1B6A01E0774B5B6A4FF4B5
:1018400000327A657A6D92FAA2F2BA62BA6AB2FA94
:1018500082F252B242F0200252B2D2B202F01F0221
:10186000D34003F00103002B40F08F8001232EE1D1
:101870007B685B68022B45D14FF000733B653B6D85
:1018800093FAA3F37B627B6AB3FA83F35BB243F010
:1018900020035BB2DBB25B09DBB2012B02D15E4BF2
:1018A0001B6817E04FF00073FB64FB6C93FAA3F323
:1018B0003B623B6AB3FA83F35BB243F020035BB253
:1018C000DBB25B09DBB2022B02D1534B1B6A01E096
:1018D000514B5B6A4FF00072BA64BA6C92FAA2F292
:1018E000FA61FA69B2FA82F252B242F0200252B2BE
:1018F000D2B202F01F02D34003F00103002B44D107
:101900000123E4E002237B647B6C93FAA3F3BB61C5
:10191000BB69B3FA83F35BB243F020035BB2DBB283
:101920005B09DBB2012B02D13B4B1B6816E00223A3
:101930003B643B6C93FAA3F37B617B69B3FA83F35B
:101940005BB243F020035BB2DBB25B09DBB2022B7C
:1019500002D1314B1B6A01E02F4B5B6A0222FA6312
:10196000FA6B92FAA2F23A613A69B2FA82F252B290
:1019700042F0200252B2D2B202F01F02D34003F072
:101980000103002B01D10123A1E02349224B5B6815
:1019900023F003027B685B6813434B60FEF74CFC4B
:1019A000F8657B685B68012B12D10AE0FEF744FC06
:1019B0000246FB6DD31A41F28832934201D90323C8
:1019C00085E0154B5B6803F00C03042BEED12BE094
:1019D0007B685B68022B21D10AE0FEF72DFC0246F2
:1019E000FB6DD31A41F28832934201D903236EE092
:1019F000094B5B6803F00C03082BEED114E0FEF7F3
:101A00001BFC0246FB6DD31A41F28832934205D982
:101A100003235CE000200240001002402E4B5B6874
:101A200003F00C03002BEAD12C4B1B6803F00702D8
:101A30003B689A4210D92949284B1B6823F00702BA
:101A40003B6813430B60254B1B6803F007023B68A0
:101A50009A4201D001233AE07B681B6803F004033B
:101A6000002B08D01C491C4B5B6823F4E0627B68A8
:101A7000DB6813434B607B681B6803F00803002B93
:101A800009D01549144B5B6823F460527B681B69CD
:101A9000DB0013434B6000F027F801460E4B5B68F8
:101AA00003F0F002F023BB63BB6B93FAA3F3FB607C
:101AB000FB68B3FA83F322FA03F3094AD35C21FAF1
:101AC00003F3084A13600020FEF78CFB002318463E
:101AD0006037BD4680BD00BF0010024000200240BC
:101AE000583900080000002090B498B000AF624A56
:101AF00007F1100310685168926807C35F4B3C46BA
:101B0000186859689A68DB680FC400237B65002356
:101B10003B650023FB650023FB640023BB650023BA
:101B2000BB6400237B64564B5B687B657B6D03F075
:101B30000C03042B02D0082B03D094E0514BBB655F
:101B400094E07B6D03F470124FF470133B633B6BB6
:101B500093FAA3F3FB62FB6AB3FA83F322FA03F36B
:101B600007F16002134413F8503CFB647B6D03F4EF
:101B70008033002B6FD0424BDB6A03F00F020F2340
:101B80003B643B6C93FAA3F3BB62BB6AB3FA83F387
:101B900022FA03F307F16002134413F8603C3B653B
:101BA000374BDB6A03F48033002B31D0344BDB6AD4
:101BB00003F0F002F0237B637B6B93FAA3F33B62A9
:101BC0003B6AB3FA83F322FA03F30133BB642C4B71
:101BD000DB6A03F470624FF47063FB63FB6B93FA90
:101BE000A3F37B627B6AB3FA83F322FA03F3023333
:101BF0007B64244ABB6CB2FBF3F37A6C02FB03F206
:101C00003B6DB2FBF3F3FA6C02FB03F3FB6507E0F9
:101C10001C4A3B6DB2FBF3F3FA6C02FB03F3FB656A
:101C20004FF47013BB63BB6B93FAA3F3FB61FB69C7
:101C3000B3FA83F34FF4501222FA03F307F1600270
:101C4000134413F8503C1A46FB6C9A4208D1FB6DC2
:101C50005B08FB6504E0FB6C0B4A02FB03F3FB65CE
:101C6000FB6DBB6502E0074BBB6500BFBB6D184653
:101C70006037BD4690BC7047703900087C39000859
:101C80000010024000127A0000093D0080B400AF4D
:101C9000024B1B681846BD4680BC70470000002000
:101CA00080B582B000AFFFF7F1FF01460B4B5B68D8
:101CB00003F4E0624FF4E0637B607B6893FAA3F384
:101CC0003B603B68B3FA83F322FA03F3044AD35C24
:101CD00021FA03F318460837BD4680BD00100240C4
:101CE0006839000880B500AF00F006F800F0B8F8D9
:101CF0000023184680BD00BF80B582B002AFFEF75A
:101D00005BFA00F0F5F900F077FA00F047FA4C4B77
:101D100020221A704A4B27225A704FF47A7300938C
:101D20000223474A3221474801F004F8444B23225A
:101D30001A70434B38225A704FF47A73009302237F
:101D40003F4A32213F4800F0F5FF3F4B00221A7016
:101D50003D4B9C225A704FF47A73009302233A4A07
:101D60003C21384800F0E6FF374B02221A70364B10
:101D700000225A704FF47A7300930223324A3C21B6
:101D8000304800F0D7FF314B20221A702F4B0F2222
:101D90005A702E4B21229A702C4B0022DA702B4B5A
:101DA00022221A71294B30225A71284B23229A7110
:101DB000264B0022DA71254B24221A72234B402233
:101DC0005A724FF47A7300930223204AD6211D4899
:101DD00000F0B0FF4FF47A73009302231C4AD6211F
:101DE000184800F0A7FF4FF47A7300930223194AB2
:101DF000D621144800F09EFF4FF47A73009302231B
:101E0000154AD6210F4800F095FF4FF47A730093DE
:101E10000223124AD6210B4800F08CFF0B4B2E22D6
:101E20001A700A4B60225A704FF47A73009302239F
:101E3000064AD621034800F07DFF00BFBD4680BDA5
:101E4000B404002070040020000500200C050020D0
:101E50000E050020100500201205002014050020AA
:101E600080B582B002AF894BA7221A704FF47A7303
:101E700000930123854A3221854800F05BFF4FF42F
:101E80007A7300930723834A3321814801F020F8B5
:101E9000804B9B781B021AB27E4B5B781BB21343BC
:101EA0001AB27D4B1A807B4B1B791B021AB2794BFD
:101EB000DB781BB213431AB2784B1A80754B9B79AF
:101EC0001B021AB2734B5B791BB213431AB2744BE9
:101ED0001A80714BB3F900301946724800F0A6FC25
:101EE0006E4BB3F9003019466F4800F09FFC6C4B05
:101EF000B3F9003019466D4800F098FC6C4B022293
:101F00001A704FF47A7300930123694A3C216048A8
:101F100000F010FF4FF47A7300930723654A3D21C8
:101F20005B4800F0D5FF634B5B781B021AB2614B34
:101F30009B781BB213431AB25F4B1A805D4BDB7860
:101F40001B021AB25B4B1B791BB213431AB25B4BD9
:101F50001A80584B5B791B021AB2564B9B791BB205
:101F600013431AB2564B1A80534BB3F9003019463B
:101F7000544800F05BFC514BB3F90030194652480D
:101F800000F054FC4E4BB3F9003019464F4800F0B6
:101F90004DFC474BB1221A704FF47A730093012322
:101FA000434A3C213A4800F0C5FE4FF47A7300934F
:101FB0000223404A3D21364800F08AFF444B0F225D
:101FC0001A704FF47A7300930123414AD6213048A6
:101FD00000F0B0FE4FF47A73009301233D4AD721FD
:101FE0002B4800F075FF3A4BA7221A704FF47A7312
:101FF00000930123364AD621254800F09BFE4FF47A
:102000007A7300930723334AD721214800F060FFF9
:10201000304B9B781B021AB22E4B5B781BB21343DA
:102020001AB22D4B1A802B4B1B791B021AB2294B6B
:10203000DB781BB213431AB2284B1A80254B9B79CD
:102040001B021AB2234B5B791BB213431AB2244B07
:102050001A80214BB3F900301946224800F0E6FB04
:102060001E4BB3F9003019461F4800F0DFFB1C4B34
:10207000B3F9003019461D4800F0D8FB4FF47A70D0
:10208000FEF7E4F800BFBD4680BD00BFB4040020E9
:1020900070040020E0040020FE0400200A05002057
:1020A000180500208C390008A0390008B439000850
:1020B000000500205004002016050020AC0400207C
:1020C000DE040020C8390008DC390008F0390008B7
:1020D0000C050020C0040020AE040020B004002045
:1020E0004C040020043A0008183A00082C3A000872
:1020F00080B596B000AF0223BB610123FB621023C1
:102100003B630023BB6300237B6407F1180318467D
:10211000FEF726FA0346002B01D000F08FF80F23BC
:102120007B600023BB600023FB6000233B61002336
:102130007B613B1D00211846FFF71AFB0346002B6D
:1021400001D000F07BF8FFF7A1FD0246124BA3FB84
:1021500002239B091846FEF791F90420FEF79AF92D
:102160004FF080537B657B6D93FAA3F33B653B6D2A
:10217000B3FA83F39B0003F1844303F584031A4607
:1021800001231360002200214FF0FF30FEF75AF9BF
:1021900000BF5837BD4680BDD34D621080B500AF3B
:1021A000124B134A1A60114B124A5A600F4B00220D
:1021B0009A600E4B0022DA600C4B4FF480421A6199
:1021C0000A4B00225A61094B00229A61074B0022F8
:1021D000DA61064B00221A62044800F025FD03462E
:1021E000002B01D000F02AF800BF80BD7004002051
:1021F00000580040A086010080B483B000AF0E4AB2
:102200000D4B9B6943F0080393610B4B9B6903F0F3
:1022100008037B607B68084A074B9B6943F0040313
:102220009361054B9B6903F004033B603B6800BF6F
:102230000C37BD4680BC70470010024080B400AF30
:10224000FEE700BF80B582B000AF0346FB71FB79AB
:102250001846FDF77FFF00BF0837BD4680BD00BFB1
:1022600080B483B000AF78600B46FB707B68FA786F
:102270001A70012318460C37BD4680BC704700BF5A
:1022800080B485B000AF786039600023FB600AE05D
:102290007B685A1C7A603A68511C396012781A704F
:1022A000FB680133FB603B681B78002BF0D1FB68B7
:1022B00018461437BD4680BC704700BF80B586B055
:1022C00000AFF8607A603B600B46FB7200237B61D5
:1022D0007B68013B7B603B68092B1DD93B681D4A2D
:1022E000A2FB0323DB08F97A7A68F868FFF7E6FFB8
:1022F00078617B69FA681344FB6010E0FB7A194649
:10230000F868FFF7ADFFFB680133FB607B690133C1
:102310007B617B68013B7B607B68002BEEDC39686E
:102320000C4BA3FB0123DA0813469B0013445B000C
:10233000CA1AD3B23033DBB21946F868FFF790FF00
:1023400002467B6913447B617B6918461837BD469A
:1023500080BD00BFCDCCCCCC80B586B000AFF860DE
:102360007A603B600B46FB7200237B613B68002B6D
:1023700003DA3B685B423B6101E03B683B617B68A1
:10238000013B7B603B69092B1FD93B68002B0CDAB2
:102390003B692E4AA2FB0323DB085B42F97A7A6889
:1023A000F868FFF7D9FF78610AE03B69274AA2FB8A
:1023B0000323DB08F97A7A68F868FFF7CDFF7861C4
:1023C0007B69FA681344FB6025E03B68002B11DA57
:1023D0007B68013B7B600DE0FB7A1946F868FFF7EC
:1023E0003FFFFB680133FB607B6901337B617B68E6
:1023F000013B7B607B68002BEEDC3B68002B0ADA3C
:102400002D21F868FFF72CFF02467B6913447B619E
:10241000FB680133FB6039690C4BA3FB0123DA082D
:1024200013469B0013445B00CA1AD3B23033DBB2AD
:102430001946F868FFF714FF02467B6913447B6175
:102440007B6918461837BD4680BD00BFCDCCCCCCCB
:1024500080B588B002AFF8607A601A460B46FB720E
:102460001346BB7200237B617B68013B7B603B6A48
:102470001B09002B20D03B6A1B09BA7AF97A00931A
:1024800013467A68F868FFF7E3FF02467B69134456
:102490007B617B69FA681344FB6010E0FB7A1946A4
:1024A000F868FFF7DDFEFB680133FB607B690133F1
:1024B0007B617B68013B7B607B68002BEEDC3B6AC9
:1024C00003F00F03092B0BD83B6ADBB203F00F03B9
:1024D000DBB23033DBB21946F868FFF7C1FE19E012
:1024E000BB7A002B0BD03B6ADBB203F00F03DBB2ED
:1024F0003733DBB21946F868FFF7B2FE0AE03B6AF1
:10250000DBB203F00F03DBB25733DBB21946F868D6
:10251000FFF7A6FE7B6901337B617B69184618379C
:10252000BD4680BD80B58AB002AFF860B9607A6000
:102530003B600023BB6100237B61FB68002B00F044
:10254000FC80FB6800221A70F7E07B681B78252B63
:102550000BD0FB685A1CFA607A68511C79601278BB
:102560001A707B6901337B61E7E07B6801331B787C
:10257000252B0BD1FB685A1CFA6025221A707B6848
:1025800002337B607B6901337B61D6E02023FB77DC
:102590000023BB777B6801337B607B681B78302B23
:1025A00014D13023FB777B6801337B600EE0BB7F67
:1025B0001A46920013445B00DAB27B681B7813441E
:1025C000DBB2303BBB777B6801337B607B681B7879
:1025D0002F2B03D97B681B78392BE8D9BA7F7B690D
:1025E00013441A46BB689A4205D9BB68DAB27B69C4
:1025F000DBB2D31ABB777B681B78583B202B00F2E9
:102600008E8001A252F823F0D92600081F27000867
:102610001F2700081F2700081F2700081F27000882
:102620001F2700081F2700081F2700081F27000872
:102630001F270008092700088D2600081F2700080B
:102640001F2700081F2700081F2700088D260008E5
:102650001F2700081F2700081F2700081F27000842
:102660001F2700081F2700081F2700081F27000832
:102670001F270008F52600081F270008A5260008C8
:102680001F2700081F270008BD260008B87F3B68E9
:102690001A1D3A601B68F97F0246F868FFF75CFE76
:1026A000B8613FE0B87F3B681A1D3A601B68F97F4C
:1026B0000246F868FFF702FEB86133E0B87F3B6876
:1026C0001A1D3A601B68F97F009300230246F868E0
:1026D000FFF7BEFEB86125E0B87F3B681A1D3A607F
:1026E0001B68F97F009301230246F868FFF7B0FEEC
:1026F000B86117E03B681A1D3A601B681946F86814
:10270000FFF7BEFDB8610DE03B681A1D3A601B681B
:10271000DBB21946F868FFF7A3FDB86102E04FF09D
:10272000FF3325E07B6801337B60BB69FA681344A3
:10273000FB607A69BB6913447B617B681B78002B63
:1027400004D07A69BB689A42FFF4FFAE7A69BB682D
:102750009A4203D2FB6800221A7008E0FB68013B32
:10276000FB60FB6800221A707B69013B7B617B691F
:1027700018462037BD4680BD80B584B000AFF860F4
:10278000B9607A607B68BA686421F868FFF7CAFEAE
:10279000034618461037BD4680BD00BFB0B5A6B091
:1027A00000AFF860B9607A60144B07F110041D4661
:1027B0000FCD0FC40FCD0FC42B68236007F1340376
:1027C0007A68B9681846FFF7D7FF0346632B09DD1F
:1027D0000B4B1B68DA6807F110031146184600F02E
:1027E00059F8FEE707F13403F968184600F052F88B
:1027F000034618469837BD46B0BD00BF403A0008B2
:102800003004002080B582B000AF78603960064B9C
:102810001B689B683A6879681846FFF7BFFF034654
:1028200018460837BD4680BD300400200FB480B57F
:1028300082B000AF07F114033B6039683869FFF7D5
:10284000E1FF78607B6818460837BD46BDE88040E8
:1028500004B0704780B582B000AF786039600C4B2F
:102860001B689A683B689A4205D0094B1B68DA6876
:102870003B689A4206D17B68DBB21846FFF7E2FC60
:102880007B6801E04FF0FF3318460837BD4680BD36
:102890003004002080B584B000AF78603960002338
:1028A000FB6012E07B681B7839681846FFF7D2FF9F
:1028B0000346B3F1FF3F02D14FF0FF330AE0FB685C
:1028C0000133FB607B6801337B607B681B78002BE6
:1028D000E8D1FB6818461037BD4680BD80B582B090
:1028E00000AF114B7B60114B3B6007E03B681A1D4A
:1028F0003A607A68111D796012681A603B680C4A68
:102900009342F3D30B480C494FF000028842B8BF02
:1029100040F8042BFADBFDF7E5FDFFF7E3F900BF14
:102920000837BD4680BD00BF643A000800000020A3
:1029300034040020340400201C05002080B400AFC3
:10294000FEE700BF80B48BB000AF78603960002331
:10295000FB610023BB6100237B6100233B620023FA
:102960003B6100237B6227E101227B6A02FA03F3C9
:10297000FB613B681A68FB691340BB61BA69FB697C
:102980009A4240F016813B685B68122B34D0122BC0
:102990000DD8022B2BD0022B04D8002B31D0012BC9
:1029A0001CD048E0032B43D0112B1BD043E0874AB7
:1029B000934226D0854A934206D8854A934220D036
:1029C000844A93421DD036E0834A934219D0834A09
:1029D000934216D0824A934213D02CE03B68DB68C6
:1029E0003B6228E03B68DB6804333B6223E03B68E2
:1029F000DB6808333B621EE03B68DB680C333B62FC
:102A000019E03B689B68002B02D104233B6212E073
:102A10003B689B68012B05D108233B627B68FA6900
:102A20001A6108E008233B627B68FA695A6102E098
:102A300000233B6200BFBB69FF2B01D87B6801E02C
:102A40007B680433FB60BB69FF2B02D87B6A9B0069
:102A500002E07B6A083B9B003B61FB681A680F2120
:102A60003B6901FA03F3DB431A40396A3B6901FA17
:102A700003F31A43FB681A603B685B6803F08053FA
:102A8000002B00F09680574A564B9B6943F0010398
:102A90009361544B9B6903F00103BB60BB68524ACE
:102AA0007B6A9B08023352F823307B617B6A03F018
:102AB00003039B000F2202FA03F3DB437A691340FE
:102AC0007B617B68494A934213D07B68484A9342B2
:102AD0000DD07B68474A934207D07B68464A9342B1
:102AE00001D1032306E0042304E0022302E00123D2
:102AF00000E000237A6A02F00302920093407A69B0
:102B000013437B6138497B6A9B0802337A6941F839
:102B100023203B685B6803F48033002B06D03749E1
:102B2000364B1A68BB6913430B6006E03349334BDD
:102B30001A68BB69DB4313400B603B685B6803F4B6
:102B40000033002B06D02D492C4B5A68BB69134328
:102B50004B6006E02949294B5A68BB69DB431340A7
:102B60004B603B685B6803F48013002B06D023495D
:102B7000224B9A68BB6913438B6006E01F491F4BC9
:102B80009A68BB69DB4313408B603B685B6803F466
:102B90000013002B06D01949184BDA68BB691343A0
:102BA000CB6006E01549154BDA68BB69DB4313407F
:102BB000CB607B6A01337B627B6A0F2B7FF6D4AEDE
:102BC00000BF2C37BD4680BC704700BF00002110FD
:102BD000000011100000121000003110000032102F
:102BE00000002210001002400000014000080140D7
:102BF000000C01400010014000140140000401409D
:102C0000ABBE01E000207047002A00D01060012018
:102C10007047069801884BF6AB62914202D10430AE
:102C200006907047FEE7000090B585B000AF786071
:102C30000023FB600023BB607B68002B01D10123D4
:102C40006EE07B6893F83530DBB2002B06D17B68F1
:102C5000002283F83420786800F052FE7B6824223A
:102C600083F835207B681B687A681268126822F046
:102C700001021A60FFF714F8B860BB682A4AA2FB89
:102C800003239B0CFB607B681B68FA685A607B68B7
:102C90001A687B685B6825498B4202D8FB68013360
:102CA00009E0FB684FF4967101FB03F32049A1FB97
:102CB00003139B09013313627B681C68B968786849
:102CC00000F0A0FB0346E3617B681B687A68D1696A
:102CD0007A68126A0A431A607B681B687A6811690D
:102CE0007A68D2680A439A607B681B687A6851697F
:102CF0007A6892690A43DA607B681B687A681268AE
:102D0000126842F001021A607B6800229A637B68B5
:102D1000202283F835207B68002283F836200023A8
:102D200018461437BD4690BD83DE1B43A0860100C4
:102D3000D34D621080B586B000AFF8607A601A4655
:102D40000B467B8113463B81FB6893F83530DBB241
:102D5000202B40F0B6807B68002B02D03B89002BF3
:102D600001D10123AEE042F2107301225749F86805
:102D700000F096FB0346002B01D00223A2E0FB6883
:102D800093F83430012B01D102239BE0FB68012230
:102D900083F83420FB681B68FA681268126822F412
:102DA00000621A60FB68212283F83520FB6810223C
:102DB00083F83620FB6800229A637B893A6A1946B9
:102DC000F86800F015FA0346002B0FD0FB689B6BE8
:102DD000042B05D1FB68002283F83420012371E025
:102DE000FB68002283F8342003236BE0FB681B6838
:102DF0005B697B61FB681B689B697B617B6934E075
:102E0000396AF86800F044FC0346002B0FD0FB68D9
:102E10009B6B042B09D1FB681B68FA681268126867
:102E200042F400721A6001234CE003234AE0FB687D
:102E30001A687B68591C79601B7813613B89013BD8
:102E40003B81FB681B685B6903F00403002B0CD01B
:102E50003B89002B09D0FB681A687B68591C796094
:102E60001B7813613B89013B3B813B89002BC7D118
:102E7000396AF86800F048FC0346002B0FD0FB6865
:102E80009B6B042B09D1FB681B68FA6812681268F7
:102E900042F400721A60012314E0032312E0FB687D
:102EA0001B68FA681268126842F400721A60FB68C4
:102EB000202283F83520FB68002283F83420002389
:102EC00000E0022318461837BD4680BD02001000FE
:102ED00080B588B000AFF8607A601A460B467B81F7
:102EE00013463B81FB6893F83530DBB2202B40F072
:102EF00079817B68002B02D03B89002B01D1012313
:102F000071E142F2107301229549F86800F0C8FAA5
:102F10000346002B01D0022365E1FB6893F83430AF
:102F2000012B01D102235EE1FB68012283F83420EA
:102F3000FB681B68FA681268126822F400621A6063
:102F4000FB68222283F83520FB68102283F83620A4
:102F5000FB6800229A637B89BA6A1946F86800F018
:102F6000ABF90346002B0FD0FB689B6B042B05D1FC
:102F7000FB68002283F83420012334E1FB6800223F
:102F800083F8342003232EE13B89012B1BD1FB68FE
:102F90001B68FA681268126822F480621A6072B6BE
:102FA000FB681B685B69FB61FB681B689B69FB61D5
:102FB000FB69FB681B68FA681268126842F40072C9
:102FC0001A6062B6FCE03B89022B1BD1FB681B68D0
:102FD000FA681268126842F400621A6072B6FB68FE
:102FE0001B685B69BB61FB681B689B69BB61BB6954
:102FF000FB681B68FA681268126822F480621A6023
:1030000062B6DDE0FB681B68FA681268126842F479
:1030100080621A60FB681B685B697B61FB681B68E8
:103020009B697B617B69CBE03B89032B00F29C8031
:103030003B89012B1AD1B96AF86800F0A1FB03465D
:10304000002B07D0FB689B6B202B01D10323CAE028
:103050000123C8E07B685A1C7A60FA68126812691A
:10306000D2B21A703B89013B3B81A9E03B89022B1C
:103070002BD1BB6A00223B49F86800F011FA0346E5
:10308000002B01D00323AEE072B6FB681B68FA6820
:103090001268126842F400721A607B685A1C7A60E7
:1030A000FA6812681269D2B21A703B89013B3B81FF
:1030B00062B67B685A1C7A60FA6812681269D2B2EA
:1030C0001A703B89013B3B817AE0BB6A00222549AB
:1030D000F86800F0E5F90346002B01D0032382E0F5
:1030E000FB681B68FA681268126822F480621A6032
:1030F00072B67B685A1C7A60FA6812681269D2B29A
:103100001A703B89013B3B81BB6A00221549F86874
:1031100000F0C6F90346002B01D0032363E0FB68EF
:103120001B68FA681268126842F400721A607B68C1
:103130005A1C7A60FA6812681269D2B21A703B8916
:10314000013B3B8162B67B685A1C7A60FA68126860
:103150001269D2B21A703B89013B3B8130E000BF5B
:103160000200100004000100B96AF86800F008FBD2
:103170000346002B07D0FB689B6B202B01D1032358
:1031800031E001232FE07B685A1C7A60FA681268EC
:103190001269D2B21A703B89013B3B81FB681B6804
:1031A0005B6903F00403002B0AD07B685A1C7A6029
:1031B000FA6812681269D2B21A703B89013B3B81EE
:1031C0003B89002B7FF430AFFB68202283F8352049
:1031D000FB68002283F83620FB68002283F8342045
:1031E000002300E0022318462037BD4680BD00BF03
:1031F00080B584B000AFF8600B467A607B81FB68D5
:103200001B68FA681268126842F480721A607B6860
:1032100000224FF00111F86800F042F90346002B3C
:1032200001D003233FE0FB681B69B3F5804F07D152
:10323000FB681B687A89D2B202F0FE021A6121E0B3
:10324000FB681B687A89D21152B202F0060252B2B0
:1032500062F00F0252B2D2B21A617A681449F86869
:1032600000F0A8F90346002B07D0FB689B6B042BEA
:1032700001D1012317E0032315E0FB681B687A895D
:10328000D2B21A617A680B49F86800F093F90346E4
:10329000002B07D0FB689B6B042B01D1012302E0BC
:1032A000032300E0002318461037BD4680BD00BF51
:1032B000080001000200010080B586B000AFF86090
:1032C0000B467A607B81FB681B68FA68126812689B
:1032D00042F480621A60FB681B68FA681268126820
:1032E00042F480721A607B6800224FF00111F86886
:1032F00000F0D6F80346002B01D003237AE0FB68E8
:103300001B69B3F5804F08D1FB681B687A89D2B27C
:1033100042F00102D2B21A615BE0FB681B687A8955
:10332000D21152B202F0060252B262F00F0252B251
:10333000D2B21A617A683149F86800F03BF9034665
:10334000002B07D0FB689B6B042B01D1012351E0BC
:1033500003234FE0FB681B687A89D2B21A617A684E
:103360002749F86800F026F90346002B07D0FB68D0
:103370009B6B042B01D101233CE003233AE0FB6863
:103380001B685B697B61FB681B689B697B617B6970
:10339000FB681B68FA681268126842F480721A604F
:1033A0007B6800224FF00111F86800F079F80346BD
:1033B000002B01D003231DE0FB681B687A89D21122
:1033C00052B202F0060252B262F00E0252B2D2B211
:1033D0001A617A680A49F86800F0ECF80346002B95
:1033E00007D0FB689B6B042B01D1012302E0032370
:1033F00000E0002318461837BD4680BD08000100D4
:103400000200010080B485B000AF7860396000230D
:10341000FB607B685B68214A93420FD87B685B68DE
:103420005B003A68B2FBF3F3FB60FB68C3F30B038A
:10343000032B01D804232BE0FB6829E04FF4004361
:10344000FB607B689B68002B0BD17B685A68134636
:103450005B0013443A68B2FBF3F3FA681343FB6072
:103460000EE07B685A6813469B0013449A0013448D
:103470003A68B2FBF3F2FB68134343F48043FB600A
:10348000FB68C3F30B03002B01D1012300E0FB68B1
:1034900018461437BD4680BC704700BFA0860100A7
:1034A00080B586B000AFF860B9603B601346FB7131
:1034B00000237B61FCF7C0FE7861FB79002B53D1C0
:1034C00018E03B68B3F1FF3F14D03B68002B07D0F6
:1034D000FCF7B2FE02467B69D21A3B689A4209D9D0
:1034E000FB68202283F83520FB68002283F8342013
:1034F00003235AE0BB681B0CDBB2012B0CD1FB6829
:103500001B685B69DA43BB6813409BB2002B14BF96
:1035100001230023DBB20BE0FB681B689B69DA43E5
:10352000BB6813409BB2002B14BF01230023DBB206
:10353000002BC6D138E03B68B3F1FF3F14D03B68A5
:10354000002B07D0FCF778FE02467B69D21A3B6855
:103550009A4209D9FB68202283F83520FB680022B3
:1035600083F83420032320E0BB681B0CDBB2012B63
:103570000CD1FB681B685B69DA43BB6813409BB2E4
:10358000002B0CBF01230023DBB20BE0FB681B68A0
:103590009B69DA43BB6813409BB2002B0CBF01232D
:1035A0000023DBB2002BC6D1002318461837BD46D6
:1035B00080BD00BF80B586B000AFF860B9607A60AA
:1035C00000237B61FCF738FE78613CE0FB681B68F8
:1035D0005B6903F48063002B1CD0FB681B68FA68EE
:1035E0001268126842F400721A60FB681B68FA687D
:1035F0001268526922F480625A61FB6804229A635D
:10360000FB68202283F83520FB68002283F83420F1
:10361000012339E07B68B3F1FF3F14D07B68002BB6
:1036200007D0FCF709FE02467B69D21A7B689A42F2
:1036300009D9FB68202283F83520FB68002283F833
:103640003420032320E0BB681B0CDBB2012B0CD120
:10365000FB681B685B69DA43BB6813409BB2002BB5
:1036600014BF01230023DBB20BE0FB681B689B69DE
:10367000DA43BB6813409BB2002B14BF0123002325
:10368000DBB2002BA2D1002318461837BD4680BDFF
:1036900080B584B000AF78603960FCF7CDFDF8608C
:1036A00026E0786800F0BAF80346002B01D0012329
:1036B00026E03B68B3F1FF3F1AD03B68002B07D0F0
:1036C000FCF7BAFD0246FB68D21A3B689A420FD952
:1036D0007B689B6B43F020027B689A637B682022A7
:1036E00083F835207B68002283F83420032307E029
:1036F0007B681B685B6903F08003002BD1D000233B
:1037000018461037BD4680BD80B584B000AF7860E4
:103710003960FCF791FDF86026E0786800F07EF8EB
:103720000346002B01D0012326E03B68B3F1FF3FA5
:103730001AD03B68002B07D0FCF77EFD0246FB68E1
:10374000D21A3B689A420FD97B689B6B43F02002E8
:103750007B689A637B68202283F835207B6800228F
:1037600083F83420032307E07B681B685B6903F060
:103770000403002BD1D0002318461037BD4680BD6E
:1037800080B584B000AF786039600023FB60FCF73F
:1037900053FDF86036E07B681B685B6903F010033B
:1037A000002B14D07B681B687A681268526922F07B
:1037B00010025A617B6800229A637B68202283F89A
:1037C00035207B68002283F83420012322E03B6807
:1037D000002B07D0FCF730FD0246FB68D21A3B688D
:1037E0009A420FD97B689B6B43F020027B689A63F7
:1037F0007B68202283F835207B68002283F8342000
:10380000032307E07B681B685B6903F04003002B20
:10381000C1D0002318461037BD4680BD80B483B0A8
:1038200000AF78607B681B685B6903F48063002BE2
:1038300014D07B681B687A681268526922F480622F
:103840005A617B6804229A637B68202283F83520C2
:103850007B68002283F83420012300E0002318460F
:103860000C37BD4680BC704780B582B000AF224A9D
:10387000214B9B6943F0010393611F4B9B6903F04C
:1038800001037B607B680320FCF7D0FD0022002150
:103890006FF00B00FCF7D6FD002200216FF00A004C
:1038A000FCF7D0FD002200216FF00900FCF7CAFDF3
:1038B000002200216FF00400FCF7C4FD002200216B
:1038C0006FF00300FCF7BEFD002200216FF0010045
:1038D000FCF7B8FD002200214FF0FF30FCF7B2FDED
:1038E000064A064B5B6823F0E06343F000735360C5
:1038F00000BF0837BD4680BD0010024000000140F7
:1039000080B588B000AF78607B681B680F4A93422F
:1039100018D14FF440633B6112237B610323FB61A9
:1039200007F1100319460A48FFF70CF8094A094B3A
:10393000DB6943F48003D361064BDB6903F4800346
:10394000FB60FB6800BF2037BD4680BD00580040CB
:10395000000C0140001002400000000000000000C8
:103960000102030406070809000000000102030425
:1039700000000405060708090000000D0102030409
:1039800005060708090A0B0C0D0E0F100A204F55EB
:10399000545F585F414343454C203D20202564003F
:1039A0000A204F55545F595F414343454C203D2009
:1039B000202564000A204F55545F5A5F4143434518
:1039C0004C203D20202564000A204F55545F585F4D
:1039D0004D4147203D202025640000000A204F551E
:1039E000545F595F4D4147203D2020256400000071
:1039F0000A204F55545F5A5F4D4147203D202025F6
:103A0000640000000A204F55545F585F4759524FD9
:103A1000203D2020256400000A204F55545F595F47
:103A20004759524F203D2020256400000A204F5561
:103A3000545F5A5F4759524F203D202025640000B3
:103A4000737464696F2E633A20696E637265617383
:103A500065204D41585F535452494E475F53495A70
:043A6000450A0D0006
:103A640000A24A0400000000000000000000000062
:103A74000100000000000000000000000000000041
:103A84000000000000000000000000000000000032
:103A94000000000000000000000000000000000022
:103AA4000000000000000000000000000000000012
:103AB4000000000000000000000000000000000002
:043E94000800002002
:0400000508000000EF
:00000001FF
