:020000040800F2
:100000000000012085750008159C00085D9C000813
:100010007D9C0008859C00088D9C00080000000065
:10002000000000000000000000000000959C000897
:10003000A19C000800000000AD9C0008D99C0008AD
:10004000CD750008CD750008CD750008B99C000875
:10005000CD750008CD750008059D0008CD75000818
:10006000CD750008199D0008CD750008CD750008F4
:10007000CD750008CD750008CD750008CD75000858
:10008000CD750008CD750008CD750008CD75000848
:10009000CD750008CD750008CD7500082D9D0008B0
:1000A000CD750008CD750008CD750008CD75000828
:1000B000CD750008CD750008CD750008CD75000818
:1000C000CD750008CD750008CD750008CD75000808
:1000D000CD750008CD750008CD750008CD750008F8
:1000E000F59C0008CD750008419D00080000000047
:1000F0000000000000000000000000000000000000
:100100000000000000000000CD750008CD7500085B
:10011000CD750008CD750008CD750008CD750008B7
:10012000CD750008CD750008CD750008CD750008A7
:10013000CD750008CD750008CD750008CD75000897
:10014000CD750008CD750008CD750008799D0008B3
:10015000000000000000000000000000000000009F
:10016000000000000000000000000000000000008F
:10017000000000000000000000000000000000007F
:10018000000000000000000000000000000000006F
:10019000000000000000000000000000000000005F
:1001A000000000000000000000000000000000004F
:1001B000000000000000000000000000000000003F
:1001C000000000000000000000000000000000002F
:1001D000000000000000000000000000000000001F
:0401E0005FF8E0F1F3
:1001E80010B5054C237833B9044B13B10448AFF369
:1001F80000800123237010BD200B002000000000A8
:100208002C0D0108084B10B51BB108490848AFF37D
:1002180000800848036803B910BD074B002BFBD0CA
:10022800BDE81040184700BF00000000240B002064
:100238002C0D0108200B00200000000081F0004177
:1002480002E000BF83F0004330B54FEA41044FEAB3
:10025800430594EA050F08BF90EA020F1FBF54EA4E
:10026800000C55EA020C7FEA645C7FEA655C00F0EA
:10027800E2804FEA5454D4EB5555B8BF6D420CDDBB
:100288002C4480EA020281EA030382EA000083EA3E
:10029800010180EA020281EA0303362D88BF30BDDE
:1002A80011F0004F4FEA01314FF4801C4CEA113134
:1002B80002D0404261EB410113F0004F4FEA033393
:1002C8004CEA133302D0524263EB430394EA050F1E
:1002D80000F0A780A4F10104D5F1200E0DDB02FA8D
:1002E8000EFC22FA05F2801841F1000103FA0EF221
:1002F800801843FA05F359410EE0A5F120050EF1E7
:10030800200E012A03FA0EFC28BF4CF0020C43FA17
:1003180005F3C01851EBE37101F0004507D54FF024
:10032800000EDCF1000C7EEB00006EEB0101B1F574
:10033800801F1BD3B1F5001F0CD349085FEA3000BA
:100348004FEA3C0C04F101044FEA445212F5800FC5
:1003580080F09A80BCF1004F08BF5FEA500C50F162
:10036800000041EB045141EA050130BD5FEA4C0C45
:10037800404141EB010111F4801FA4F10104E9D1CE
:1003880091F0000F04BF01460020B1FA81F308BFC5
:100398002033A3F10B03B3F120020CDA0C3208DD91
:1003A80002F1140CC2F10C0201FA0CF021FA02F16C
:1003B8000CE002F11402D8BFC2F1200C01FA02F1DC
:1003C80020FA0CFCDCBF41EA0C019040E41AA2BF01
:1003D80001EB0451294330BD6FEA04041F3C1CDAC9
:1003E8000C340EDC04F11404C4F1200220FA04F0E9
:1003F80001FA02F340EA030021FA04F345EA030193
:1004080030BDC4F10C04C4F1200220FA02F001FA54
:1004180004F340EA0300294630BD21FA04F02946D6
:1004280030BD94F0000F83F4801306BF81F480116F
:100438000134013D4EE77FEA645C18BF7FEA655CE2
:1004480029D094EA050F08BF90EA020F05D054EAB4
:10045800000C04BF1946104630BD91EA030F1EBFB9
:100468000021002030BD5FEA545C05D140004941BD
:1004780028BF41F0004130BD14F580043CBF01F5B0
:10048800801130BD01F0004545F0FE4141F4700196
:100498004FF0000030BD7FEA645C1ABF1946104671
:1004A8007FEA655C1CBF0B46024650EA013406BF72
:1004B80052EA033591EA030F41F4002130BD00BF31
:1004C80090F0000F04BF0021704730B54FF48064EE
:1004D80004F132044FF000054FF0000150E700BF6F
:1004E80090F0000F04BF0021704730B54FF48064CE
:1004F80004F1320410F0004548BF40424FF00001BB
:100508003EE700BF42004FEAE2014FEA31014FEAFD
:1005180002701FBF12F07F4393F07F4F81F060514C
:10052800704792F0000F14BF93F07F4F704730B5BB
:100538004FF4607401F0004521F0004120E700BF4E
:1005480050EA010208BF704730B54FF000050AE0D5
:1005580050EA010208BF704730B511F0004502D5D6
:10056800404261EB41014FF4806404F132045FEAD8
:10057800915C3FF4DCAE4FF003025FEADC0C18BF7D
:1005880003325FEADC0C18BF033202EBDC02C2F173
:10059800200300FA03FC20FA02F001FA03FE40EA05
:1005A8000E0021FA02F11444C1E600BF70B54FF005
:1005B800FF0C4CF4E06C1CEA11541DBF1CEA1355E7
:1005C80094EA0C0F95EA0C0F00F0DEF82C4481EA4F
:1005D800030621EA4C5123EA4C5350EA013518BF6F
:1005E80052EA033541F4801143F4801338D0A0FB5C
:1005F80002CE4FF00005E1FB02E506F00042E0FB09
:1006080003E54FF00006E1FB03569CF0000F18BF0E
:100618004EF0010EA4F1FF04B6F5007F64F54074B6
:1006280004D25FEA4E0E6D4146EB060642EAC62149
:1006380041EA55514FEAC52040EA5E504FEACE2EB6
:10064800B4F1FD0C88BFBCF5E06F1ED8BEF1004FB9
:1006580008BF5FEA500E50F1000041EB045170BD35
:1006680006F0004646EA010140EA020081EA030179
:10067800B4EB5C04C2BFD4EB0C0541EA045170BD75
:1006880041F480114FF0000E013C00F3AB8014F1EF
:10069800360FDEBF002001F0004170BDC4F1000438
:1006A800203C35DA0C341BDC04F11404C4F12005B9
:1006B80000FA05F320FA04F001FA05F240EA020014
:1006C80001F0004221F0004110EBD37021FA04F64A
:1006D80042EB06015EEA430E08BF20EAD37070BD04
:1006E800C4F10C04C4F1200500FA04F320FA05F063
:1006F80001FA04F240EA020001F0004110EBD37065
:1007080041F100015EEA430E08BF20EAD37070BDD4
:10071800C4F1200500FA05F24EEA020E20FA04F3AD
:1007280001FA05F243EA020321FA04F001F000415C
:1007380021FA04F220EA020000EBD3705EEA430ECD
:1007480008BF20EAD37070BD94F0000F0FD101F0FC
:100758000046400041EB010111F4801F08BF013C35
:10076800F7D041EA060195F0000F18BF704703F073
:100778000046520043EB030313F4801F08BF013DFA
:10078800F7D043EA0603704794EA0C0F0CEA1355B6
:1007980018BF95EA0C0F0CD050EA410618BF52EA70
:1007A8004306D1D181EA030101F000414FF0000076
:1007B80070BD50EA410606BF1046194652EA430684
:1007C80019D094EA0C0F02D150EA013613D195EAF8
:1007D8000C0F05D152EA03361CBF104619460AD140
:1007E80081EA030101F0004141F0FE4141F470014A
:1007F8004FF0000070BD41F0FE4141F4780170BD3A
:1008080070B54FF0FF0C4CF4E06C1CEA11541DBF9E
:100818001CEA135594EA0C0F95EA0C0F00F0A7F8A0
:10082800A4EB050481EA030E52EA03354FEA0131CD
:1008380000F088804FEA03334FF0805545EA1313E0
:1008480043EA12634FEA022245EA111545EA1065A8
:100858004FEA00260EF000419D4208BF964244F13F
:10086800FD0404F5407402D25B084FEA3202B61A5E
:1008780065EB03055B084FEA32024FF480104FF432
:10088800002CB6EB020E75EB030E22BFB61A7546A6
:1008980040EA0C005B084FEA3202B6EB020E75EB39
:1008A800030E22BFB61A754640EA5C005B084FEAA1
:1008B8003202B6EB020E75EB030E22BFB61A75466E
:1008C80040EA9C005B084FEA3202B6EB020E75EB79
:1008D800030E22BFB61A754640EADC0055EA060E3A
:1008E80018D04FEA051545EA16754FEA06164FEA7D
:1008F800C30343EA52734FEAC2025FEA1C1CC0D129
:1009080011F4801F0BD141EA00014FF000004FF0B5
:10091800004CB6E711F4801F04BF01430020B4F176
:10092800FD0C88BFBCF5E06F3FF6AFAEB5EB030C2E
:1009380004BFB6EB020C5FEA500C50F1000041EB2B
:10094800045170BD0EF0004E4EEA113114EB5C04F8
:10095800C2BFD4EB0C0541EA045170BD41F48011CB
:100968004FF0000E013C90E645EA060E8DE60CEAD3
:10097800135594EA0C0F08BF95EA0C0F3FF43BAFF0
:1009880094EA0C0F0AD150EA01347FF434AF95EAA7
:100998000C0F7FF425AF104619462CE795EA0C0F8B
:1009A80006D152EA03353FF4FDAE1046194622E758
:1009B80050EA410618BF52EA43067FF4C5AE50EA32
:1009C80041047FF40DAF52EA43057FF4EBAE12E722
:1009D8004FF0FF3C06E000BF4FF0010C02E000BF03
:1009E8004FF0010C4DF804CD4FEA410C7FEA6C5CE6
:1009F8004FEA430C18BF7FEA6C5C1BD001B050EA89
:100A0800410C0CBF52EA430C91EA030F02BF90EA73
:100A1800020F0020704710F1000F91EA030F58BF32
:100A2800994208BF90422CBFD8176FEAE37040F094
:100A3800010070474FEA410C7FEA6C5C02D150EA32
:100A4800013C07D14FEA430C7FEA6C5CD6D152EAED
:100A5800033CD3D05DF8040B704700BF84461046B2
:100A680062468C461946634600E000BF01B5FFF7B1
:100A7800B7FF002848BF10F1000F01BD4DF808ED81
:100A8800FFF7F4FF0CBF012000205DF808FB00BF52
:100A98004DF808EDFFF7EAFF34BF012000205DF8AC
:100AA80008FB00BF4DF808EDFFF7E0FF94BF0120F9
:100AB80000205DF808FB00BF4DF808EDFFF7CEFFFA
:100AC80094BF012000205DF808FB00BF4DF808ED39
:100AD800FFF7C4FF34BF012000205DF808FB00BF0A
:100AE8004FEA410212F5001215D211D56FF478734E
:100AF800B3EB625212D94FEAC12343F0004343EAF1
:100B0800505311F0004F23FA02F018BF40427047CB
:100B18004FF00000704750EA013005D111F0004055
:100B280008BF6FF0004070474FF00000704700BFEB
:100B38004A0011D212F5001211D20DD56FF4787354
:100B4800B3EB62520ED44FEAC12343F0004343EAA9
:100B5800505323FA02F070474FF00000704750EAF4
:100B6800013002D14FF0FF3070474FF0000070475E
:100B78004FEA4102B2F1E04324BFB3F5001CDCF1B7
:100B8800FE5C0DD901F0004C4FEAC0024CEA5070EF
:100B9800B2F1004F40EB830008BF20F0010070471E
:100BA80011F0804F21D113F13872BCBF01F0004021
:100BB800704741F480114FEA5252C2F11802C2F153
:100BC800200C10FA0CF320FA02F018BF40F00100D4
:100BD8004FEAC1234FEAD32303FA0CFC40EA0C0086
:100BE80023FA02F34FEA4303CCE77FEA625307D1C3
:100BF80050EA01331EBF4FF0FE4040F440007047FA
:100C080001F0004040F0FE4040F40000704700BF93
:100C180080F0004002E000BF81F0004142001FBFA9
:100C28005FEA410392EA030F7FEA226C7FEA236CB2
:100C38006AD04FEA1262D2EB1363C1BFD2184140A7
:100C480048404140B8BF5B42192B88BF704710F03D
:100C5800004F40F4000020F07F4018BF404211F0E0
:100C6800004F41F4000121F07F4118BF494292EA48
:100C7800030F3FD0A2F1010241FA03FC10EB0C0074
:100C8800C3F1200301FA03F100F0004302D5494201
:100C980060EB4000B0F5000F13D3B0F1807F06D3AE
:100CA80040084FEA310102F10102FE2A51D2B1F1A6
:100CB800004F40EBC25008BF20F0010040EA03009B
:100CC8007047490040EB000010F4000FA2F1010248
:100CD800EDD1B0FA80FCACF1080CB2EB0C0200FAD2
:100CE8000CF0AABF00EBC25052421843BCBFD04020
:100CF8001843704792F0000F81F4000106BF80F49A
:100D080000000132013BB5E74FEA41037FEA226C5C
:100D180018BF7FEA236C21D092EA030F04D092F027
:100D2800000F08BF0846704790EA010F1CBF00205B
:100D3800704712F07F4F04D1400028BF40F00040B8
:100D4800704712F100723CBF00F50000704700F0D8
:100D5800004343F0FE4040F4000070477FEA2262FF
:100D680016BF08467FEA23630146420206BF5FEAD0
:100D7800412390EA010F40F4800070474FF00003D0
:100D880004E000BF10F0004348BF40425FEA000C97
:100D980008BF704743F0964301464FF000001CE03F
:100DA80050EA010208BF70474FF000030AE000BF95
:100DB80050EA010208BF704711F0004302D54042D3
:100DC80061EB41015FEA010C02BF84460146002045
:100DD80043F0B64308BFA3F18053A3F50003BCFA60
:100DE8008CF2083AA3EBC25310DB01FA02FC63440D
:100DF80000FA02FCC2F12002BCF1004F20FA02F214
:100E080043EB020008BF20F00100704702F1200206
:100E180001FA02FCC2F1200250EA4C0021FA02F267
:100E280043EB020008BF20EADC707047F8B50022E7
:100E3800002307460E46FFF72BFE28B938463146F1
:100E4800BDE8F84000F00AB8384606F1004100F065
:100E580005F8404261EB4101F8BD00BFD0B5002262
:100E68000E4B06460F46FFF7A1FBFFF761FE04464F
:100E7800FFF726FB00220A4BFFF798FB02460B46BA
:100E880030463946FFF7DEF9FFF752FE23460022C7
:100E980042EA000210461946D0BD00BF0000F03DEE
:100EA8000000F041844641EA000313F0030349D1EE
:100EB800403A23D30B6803604B6843608B688360B8
:100EC800CB68C3600B6903614B6943618B698361BC
:100ED800CB69C3610B6A03624B6A43628B6A8362A4
:100EE800CB6AC3620B6B03634B6B43638B6B83638C
:100EF800CB6BC36340304031403ADBD230320BD346
:100F08000B6803604B6843608B688360CB68C36081
:100F180010301031103AF3D20C3205D351F8043B9B
:100F280040F8043B043AF9D2043208D0D2071CBF77
:100F380011F8013B00F8013B01D30B8803806046A0
:100F4800704700BF082A13D38B07B1D010F00303F2
:100F5800AED0C3F10403D21ADB071CBF11F8013B62
:100F680000F8013BA4D331F8023B20F8023B9FE78D
:100F7800043AD9D3013A11F8013B00F8013BF9D200
:100F88000B7803704B7843708B788370604670479A
:100F98004FEA410C7FEA6C5C02D150EA013C0AD16D
:100FA8004FEA430C7FEA6C5C02D152EA033C02D15F
:100FB8004FF0000070474FF00100704753B94AB92D
:100FC800002908BF00281CBF4FF0FF314FF0FF3049
:100FD80000F082B9ADF1080C6DE904CE00F006F816
:100FE800DDF804E0DDE9022304B070472DE9F04F95
:100FF8008C460C460546099E002B4FD18A4217465F
:101008006BD9B2FA82FEBEF1000F0BD0CEF12005EB
:1010180020FA05F501FA0EF345EA030C02FA0EF779
:1010280000FA0EF5390CBCFBF1F0BAB201FB10C3A3
:1010380000FB02F84FEA154C4CEA0344A04509D9D5
:10104800E41900F1FF3380F02881A04540F22581A2
:1010580002383C44C8EB0404B4FBF1F301FB134C25
:1010680003FB02F2ACB244EA0C418A4209D9C9191D
:1010780003F1FF3480F00F818A4240F20C81023B79
:1010880039448A1A43EA00400021002E63D022FA2C
:101098000EF2002386E80C00BDE8F08F8B4207D9DA
:1010A800002E56D0002186E811000846BDE8F08FD2
:1010B800B3FA83F1002940F09380A34202D382421D
:1010C80000F2FE80851A64EB03039C460120002E83
:1010D80041D086E82010BDE8F08F12B90127B7FB90
:1010E800F2F7B7FA87FEBEF1000F36D1E41B4FEADC
:1010F80017481FFA87F90121B4FBF8F308FB1344DA
:1011080009FB03F24FEA154C4CEA0444A24207D902
:10111800E41903F1FF3002D2A24200F2D380034661
:10112800A41AB4FBF8F008FB104809FB00F9ACB2AC
:1011380044EA0842914507D9D21900F1FF3402D296
:10114800914500F2BA802046C9EB020240EA03400A
:101158009BE731463046BDE8F08F07FA0EF7CEF12F
:10116800200C24FA0CF34FEA1748B3FBF8FA1FFADD
:1011780087F908FB1A3520FA0CFC04FA0EF40AFB6E
:1011880009FB4CEA040C4FEA1C4242EA05439B4522
:1011980000FA0EF50AD9DB190AF1FF3280F08B80CC
:1011A8009B4540F28880AAF1020A3B44CBEB03033B
:1011B800B3FBF8F008FB103300FB09F41FFA8CFCB2
:1011C8004CEA03439C4207D9DB1900F1FF326ED287
:1011D8009C426CD902383B441C1B40EA0A418BE70D
:1011E800C1F1200E8B4022FA0EFC4CEA030C24FAC3
:1011F8000EF74FEA1C49B7FBF9FA1FFA8CF309FB03
:101208001A7720FA0EF88C400AFB03F548EA040422
:101218004FEA144848EA0747BD4202FA01F200FAC9
:1012280001FB09D917EB0C070AF1FF3041D2BD4287
:101238003FD9AAF1020A67447F1BB7FBF9F509FBFE
:10124800157705FB03F3A4B244EA0747BB4208D964
:1012580017EB0C0705F1FF3027D2BB4225D9023D19
:10126800674445EA0A40A0FB0289FF1A4F454546F4
:101278004C4614D329D066B3BBEB050367EB0407D0
:1012880007FA0EFECB40CF404EEA030386E88800FB
:101298000021BDE8F08F2346F3E61846DAE6B8EBFE
:1012A800020569EB0C040138E5E70546D9E7104665
:1012B80092E78246C0E7924678E702383A4443E725
:1012C800084604E7023B3C442AE7C345E7D33C46CB
:1012D800D1E73146BDE8F08F704700BF70B50F4EBB
:1012E8000F4D761BB61018BF002405D0013455F8F1
:1012F800043B9847A642F9D10A4E0B4D0FF012FD58
:10130800761BB61018BF002406D0013455F8043BEC
:101318009847A642F9D170BD70BD00BF4C0D0108B9
:101328004C0D0108540D01084C0D010870B48407D8
:1013380046D0541E002A41D0CDB2034602E0621EB8
:10134800E4B3144603F8015B9A07F8D1032C2ED9AD
:10135800CDB245EA05250F2C45EA054519D926469B
:1013680003F11002103E0F2E42F8105C42F80C5C9C
:1013780042F8085C42F8045C02F11002F2D8A4F1C9
:10138800100222F00F0204F00F041032032C134451
:101398000DD91E462246043A032A46F8045BFAD8B9
:1013A800221F22F003020432134404F003042CB178
:1013B800C9B21C4403F8011BA342FBD170BC70479F
:1013C80014460346C2E700BF024B13B1024800F0BF
:1013D80005B8704700000000F1130008002301461B
:1013E8001A46184600F014B838B5074D074C2C1BA0
:1013F800A41005D0013C55F8043D9847002CF9D1BC
:10140800BDE838400FF094BC580D0108540D010890
:101418002DE9F047254C064625688846D5F8484109
:1014280092469946C4B360681F2817DC411C76B100
:1014380004EB8003C3F888A0D4F8885101228240C5
:101448001543022EC4F88851C3F808911ED0831C96
:101458006160002044F82380BDE8F087144B03B393
:101468004FF4C870AFF300800446D0B1D5F84831C6
:10147800002784E888003846C5F848410121C4F8A7
:101488008871C4F88C71002EE1D0D1E7D4F88C3182
:101498001A43C4F88C21DAE705F5A674C5F8484163
:1014A800C1E74FF0FF30BDE8F08700BF3007010803
:1014B8000000000080B400AF00BF054B9B889BB2C2
:1014C80003F02003002BF8D000BFBD4680BC704756
:1014D8000028004080B485B000AF0346FB8000239D
:1014E800FB730F4B9B889BB2DAB2FB88DBB21340CD
:1014F800FB730B4B1B889AB2FB8813409BB2002BE3
:1015080005D0FB7B002B02D00123FB7301E00023F5
:10151800FB73FB7B18461437BD4680BC704700BF81
:101528000028004080B483B000AF0346FB80074921
:10153800064B9B889AB2FB88DB439BB213409BB255
:101548008B8000BF0C37BD4680BC70470028004028
:1015580080B485B000AF78600023FB607B68DB68EF
:101568004FF0FF325A607B68DB686FF080425A6147
:10157800FB7B43F08003FB737B7B43F008037B73A7
:101588007B68DB68FA689A6100BF1437BD4680BC87
:10159800704700BF80B586B000AF78600023FB7449
:1015A80000237B610023FB60032002F0A7FE7B6819
:1015B800DB681B69FB607B6901337B617B69184AC7
:1015C800934201D9002326E0FB68C3F3C073DBB262
:1015D800002BE9D000237B61FB6843F00103FB602B
:1015E8007B68DB68FA681A617B68DB681B69FB60EB
:1015F8007B6901337B617B69094A934206D8FB68A2
:10160800C3F30003DBB2012BEED000E000BF0320E0
:1016180002F074FEFB7C18461837BD4680BD00BF3B
:10162800400D030080B489B000AFF860B96011467E
:101638001A460B46FB711346BB800023FB76FB68FA
:10164800DB78002B22D100237B610023FB61BB8860
:101658000333002B00DA03339B107B61FB79FA68B4
:1016680032339B0013449B683B610023FB6109E014
:10167800BB681A683B691A60FB690133FB61BB6888
:101688000433BB60FA697B699A42F1D3FB7E184642
:101698002437BD4680BC704780B489B000AFF8607D
:1016A800B9601346FB800023FB61FB880333002BE2
:1016B80000DA03339B10BB61FB68D3F8D0307B6141
:1016C8000023FB6109E07B691A68BB681A60FB6943
:1016D8000133FB61BB680433BB60FA69BB699A429A
:1016E800F1D3BB6818462437BD4680BC704700BF9D
:1016F80080B487B000AF78600B46FB7000233B6175
:101708000023FB737B680022DA707B6801229A70E1
:101718007B6840229A80FB78012B13D14FF0A043BD
:101728003B617B680122DA727B6808221A707B6849
:1017380004225A707B684FF4A072DA807B68022218
:101748001A7211E0FB78002B0ED1454B3B617B6888
:101758000022DA727B680C221A707B6806225A70A3
:101768007B684FF4A062DA803A697B68DA603B698B
:1017780003F500631A467B681A6100237B611CE04D
:101788007B695A013B69134403F5106319467A686B
:101798007B6904339B00134499607B695A013B6958
:1017A800134403F5306319467A687B6914339B0048
:1017B800134459607B6901337B617B685B781A4607
:1017C8007B699A42DCD83B6903F580631A467B68DB
:1017D8005A613B6903F588631A467B68C3F8CC20D5
:1017E80000237B610FE07B695A013B69134403F5D1
:1017F800A06319467A687B6922339B001344996079
:101808007B6901337B617B681B781A467B699A4246
:10181800E9D800237B610FE07B691A033B69134415
:1018280003F5805319467A687B6932339B00134469
:1018380099607B6901337B617B681B781A467B69F9
:101848009A42E9D83B6903F560631A467B68C3F896
:101858000C21FB7B18461C37BD4680BC704700BF77
:101868000000044080B586B000AF78600023FB75A7
:1018780000233B610023FB600023BB607B681B7A6D
:10188800012B42D17B68DB689B6BFB60BB7B6FF3F2
:101898000003BB737B685B7A002B03D0BB7B43F0F0
:1018A8001003BB737B68DB68FA689A6300233B61AB
:1018B8007B68DB68DB683B613B7C6FF386133B74BA
:1018C800BB7C6FF38613BB74BB7C6FF34103BB74A3
:1018D800BB7C6FF3C303BB747B68DB683A69DA606F
:1018E8007868FFF757FE7B68DB78012B3DD13B7AA0
:1018F800052262F344033B723B7A43F020033B72B8
:101908007B68DB68BA689A602FE07B68DB68DB6815
:101918003B613B7C43F040033B747B68DB683A697E
:10192800DA607868FFF736FE0023FB60BB7B43F084
:101938000103BB73BB7B43F00403BB73BB7B43F066
:101948000803BB73BB7B43F02003BB737B685B7AE4
:10195800002B03D0BB7B43F01003BB737B68DB68B1
:10196800FA689A63142002F0EDFC7B68DB78012B9F
:1019780010D17B68DB689B68BB603B7A052262F309
:1019880044033B723B7A43F020033B727B68DB687D
:10199800BA689A60FB7D18461837BD4680BD00BFFF
:1019A80080B485B000AF78600023FB730023BB6070
:1019B8003B7A43F001033B727B68DB687A68D26844
:1019C8009168BA680A439A60FB7B18461437BD468B
:1019D80080BC704780B485B000AF78600023FB738B
:1019E8000023BB603B7A43F001033B727B68DB68F2
:1019F8007A68D2689168BA68D2430A409A60FB7BD9
:101A080018461437BD4680BC704700BF80B586B005
:101A180000AF786039600023FB7400237B610023EA
:101A2800FB60FB6843F02003FB603B68DBB203F01C
:101A38001F03DAB2FB6862F38A13FB607B68DB681A
:101A4800FA681A617B68DB681B69FB607B69013394
:101A58007B617B69094A934206D8FB68C3F340134C
:101A6800DBB2012BEED000E000BF032002F046FC01
:101A7800FB7C18461837BD4680BD00BF400D0300EB
:101A880080B586B000AF78600023FB7400237B61CB
:101A98000023FB60FB6843F01003FB607B68DB6896
:101AA800FA681A617B68DB681B69FB607B69013334
:101AB8007B617B69094A934206D8FB68C3F300132C
:101AC800DBB2012BEED000E000BF032002F016FCD1
:101AD800FB7C18461837BD4680BD00BF400D03008B
:101AE80080B584B000AF78600B46FB700023FB73B1
:101AF8007B68DB68DB68BB60FB7A6FF34513FB72BE
:101B0800FB7A6FF38613FB72FB78012B04D1FB7A07
:101B180043F02003FB7206E0FB78002B03D1FB7A2D
:101B280043F04003FB727B68DB68BA68DA603220F6
:101B380002F008FCFB7B18461037BD4680BD00BF8D
:101B480080B483B000AF78607B68DB685B6903F0C2
:101B5800010318460C37BD4680BC704780B582B07B
:101B680000AF78607868FFF7EBFF0346012B14BFDE
:101B780001230023DBB218460837BD4680BD00BFED
:101B880080B485B000AF78600023FB607B68DB68B9
:101B98005B69FB607B68DB689B69FA681340FB60E4
:101BA800FB6818461437BD4680BC704780B485B0C2
:101BB80000AF78600B46FB707B681B691B68FB6095
:101BC800FB7803F00303DAB23B7B62F301033B7358
:101BD8007B681B69FA681A6000BF1437BD4680BC71
:101BE800704700BF80B58CB000AF7860002387F8DD
:101BF8002B3000237B6200233B620023FB61002320
:101C0800BB6100237B617B68D3F80C3100221A602A
:101C18007B681B691B683B6297F821306FF3C4032C
:101C280087F821307B681B693A6A1A607B68DB7A1F
:101C3800012B33D103217868FFF7B8FF7B68DB6895
:101C480080225A624023FB838023BB837B68DB6846
:101C5800FA699A62BA8BFB8B13449BB23B8380234D
:101C68007B837B68DB68BA69C3F804213A8B7B8B7A
:101C780013449BB23B8300237B837B68DB68BA6990
:101C8800C3F808213A8B7B8B13449BB23B83002318
:101C98007B837B68DB68BA69C3F80C2110217868FC
:101CA800FFF7B4FE7868FFF7EBFE7B681B6900223C
:101CB8001A617B681B6900225A617B681B694FF0B7
:101CC800FF329A617B681B690022DA610023FB629C
:101CD8003AE07A68FB6A04339B0013449B681B68EC
:101CE8007B6297F8273023F07F03DBB2002B0ED0FE
:101CF80000237B6297F8273043F0400387F82730AA
:101D080097F8273043F0080387F8273001E00023CD
:101D18007B627A68FB6A04339B0013449B687A6A87
:101D28001A607A68FB6A04339B0013449B6800229C
:101D38001A617A68FB6A04339B0013449B68FF228C
:101D48009A60FB6A0133FB627B685B781A46FB6A20
:101D58009A42BED80023FB6235E07A68FB6A1433E6
:101D68009B0013445B681B68FB60FB7B23F07F03CD
:101D7800DBB2002B0AD00023FB60FB7B43F040035F
:101D8800FB73FB7B43F00803FB7301E00023FB605C
:101D98007A68FB6A14339B0013445B68FA681A601C
:101DA8007A68FB6A14339B0013445B6800221A614B
:101DB8007A68FB6A14339B0013445B68FF229A60BD
:101DC800FB6A0133FB627B685B781A46FB6A9A42BE
:101DD800C3D800237B617B7D43F001037B757B685F
:101DE8001B697A68126911697A69D24311407A6964
:101DF8000A431A617B68DB78012B1BD100233B6106
:101E08003B7C43F001033B743B7C43F002033B748F
:101E18003B8A402262F38A033B82BB7C43F0010386
:101E2800BB747B8A402262F349037B827B681B690F
:101E38003A691A63786800F007F897F82B30184663
:101E48003037BD4680BD00BF80B584B000AF786034
:101E58000023FB730023BB607B68DB6800229A6168
:101E68007B68DB686FF080425A617868FFF770FB27
:101E78007B68DB78002B03D13B7A43F010033B727D
:101E88007B7A43F008037B727B7A43F010037B7202
:101E98007B7A43F020037B72BB7A43F00403BB7266
:101EA800BB7A43F00803BB723B7A43F008033B72EA
:101EB800BB7A43F01003BB72BB7A43F02003BB72BA
:101EC8007B68DB687A68D2689169BA68D243114046
:101ED800BA680A439A61FB7B18461037BD4680BD35
:101EE80080B485B000AF78600023FB737B681B6902
:101EF8009B68BB603B7AC3F34103DBB2022B09D07A
:101F0800032B04D0012B02D00323FB7305E002232B
:101F1800FB7302E00123FB7300BFFB7B18461437F9
:101F2800BD4680BC704700BF80B487B000AF786002
:101F38000023FB750023BB607B681B699B683B61C2
:101F48007B689B691B68FB603B7CC3F34103DBB286
:101F5800022B04D0BB896FF30A03BB8105E0BB8960
:101F6800032262F30A03BB8100BF7B689B69FA689E
:101F78001A607B7A43F001037B727B681B697A687D
:101F880012695168BA68D2431140BA680A435A6064
:101F9800FB7D18461C37BD4680BC704780B487B0AF
:101FA80000AF786039600023FB740023FB600023D6
:101FB800BB603B685B78012B0FD13B681B787A6864
:101FC80004339B0013449B687B613B681B781A466B
:101FD800012393409BB23B810EE03B681B787A68F3
:101FE80014339B0013445B687B613B681B781A467B
:101FF800012393409BB27B817B691B68FB607B7BE1
:1020080023F07F03DBB2002B27D13B689B689BB290
:10201800C3F30A039AB2BB8962F30A03BB813B6824
:10202800DB7803F00303DAB2BB7B62F38303BB7391
:102038003B68DB88DBB203F00F03DAB2FB8962F39B
:102048008913FB81FB7B43F01003FB737B7B43F01D
:1020580080037B73FA687B691A607B681B697A68FE
:102068001269D169BA680A43DA61FB7C18461C37E1
:10207800BD4680BC704700BF80B487B000AF7860B1
:1020880039600023FB740023FB600023BB603B68BE
:102098005B78012B0FD13B681B787A6804339B006F
:1020A80013449B687B613B681B781A460123934065
:1020B8009BB23B810EE03B681B787A6814339B0027
:1020C80013445B687B613B681B781A460123934085
:1020D8009BB27B817B7B6FF3C7137B73FA687B6949
:1020E8001A607B681B697A681269D169BA68D24339
:1020F8000A40DA61FB7C18461C37BD4680BC704735
:1021080080B588B000AF786039600023FB77002382
:10211800BB6100237B6100233B613B685B78012B3B
:1021280040F0AB803B681B787A6804339B0013440B
:102138009B681B687B613B681B787A6804339B004B
:1021480013449B681B693B613B685B69002B09D1A1
:102158003B696FF312033B617B8A012262F3CC0374
:102168007B8222E03B685B69C3F312023B6962F33E
:1021780012033B613B685A693B689B6813445A1ECB
:102188003B689B68B2FBF3F39BB2C3F309039AB2B3
:102198007B8A62F3CC037B823B68DB78012B04D11A
:1021A800FB7C012262F34613FB743B681B787A6858
:1021B80004339B0013449B683A691A617B68DB7897
:1021C800012B0AD13B681B787A6804339B001344BF
:1021D8009B683A6812695A6115E03B68DB78012B05
:1021E80011D03B685B69002B0DD03B681B781A4601
:1021F80001239340BB617B681B697A681269516B44
:10220800BA690A435A633B68DB78012B14D17B68AF
:102218001B699B68FB60FB68C3F30D239BB203F04B
:102228000103002B04D1FB7D43F02003FB7503E081
:10223800FB7D43F01003FB75FB7D43F00403FB7546
:10224800FB7D43F08003FB753B681B787A68043399
:102258009B0013449B687A691A603B68DB78012B02
:1022680040F089803B68D9683B681A783B685B69AD
:102278009BB27868FFF7D6F97DE03B681B787A68EF
:1022880014339B0013445B681B687B613B681B78B5
:102298007A6814339B0013445B681B693B613B6895
:1022A8005B69002B0DD13B689B68C3F312023B6945
:1022B80062F312033B617B8A012262F3CC037B82C7
:1022C80020E03B685A693B689B6813445A1E3B6888
:1022D8009B68B2FBF3F39BB2C3F309039AB27B8A00
:1022E80062F3CC037B827B8AC3F3C9039BB21A4691
:1022F8003B689B6803FB02F3C3F312023B6962F37A
:1023080012033B613B681B787A6814339B001344C3
:102318005B683A691A617B68DB78012B09D13B68F5
:102328001B787A6814339B0013445B683A68126917
:102338005A613B68DB78012B0CD13B685B79002B39
:1023480004D0FB7D43F02003FB7503E0FB7D43F0E5
:102358001003FB75FB7D43F00403FB75FB7D43F025
:102368008003FB753B681B787A6814339B00134421
:102378005B687A691A60FB7F18462037BD4680BDC6
:1023880080B489B000AF786039600023FB77002300
:10239800BB6100233B610023BB603B685B78012B7A
:1023A80070D17B689B697B617B691B683B617B693A
:1023B8001B69BB603B685B69002B09D13B7A6FF3F3
:1023C80006033B72BB7A012262F3C403BB7223E0AB
:1023D8003B685A693B689B689A420ED93B689A6881
:1023E8003B685A613B689B68DBB203F07F03DAB253
:1023F8003B7A62F306033B7209E03B685B69DBB238
:1024080003F07F03DAB23B7A62F306033B72BB7ACE
:10241800012262F3C403BB72BA687B691A617B68E4
:10242800DB78012B09D13B681B787A6804339B0061
:1024380013449B683A6812695A61FB7C43F00403B1
:10244800FB74FB7C43F08003FB743A697B691A6078
:102458007B68DB78002B76D13B685B69002B72D0F8
:102468003B681B781A46012393401A46BB691343FD
:10247800BB617B681B697A681269516BBA690A4348
:102488005A6360E03B681B787A6814339B001344F6
:102498005B681B683B613B681B787A6814339B0058
:1024A80013445B681B69BB603B685B69002B0FD1F9
:1024B8003B689B68DBB203F07F03DAB23B7A62F3D6
:1024C80006033B72BB7A012262F3C403BB7212E0BB
:1024D8003B689A683B685A613B689B68DBB203F0CB
:1024E8007F03DAB23B7A62F306033B72BB7A0122BE
:1024F80062F3C403BB723B681B787A6814339B0091
:1025080013445B68BA681A617B68DB78012B09D1D0
:102518003B681B787A6814339B0013445B683A68FD
:1025280012695A61FB7C43F00403FB74FB7C43F0A3
:102538008003FB743B681B787A6814339B00134450
:102548005B683A691A60FB7F18462437BD4680BC31
:10255800704700BF80B487B000AF7860396000234F
:10256800FB750023FB603B685B78012B1CD13B6843
:102578001B787A6804339B0013449B683B613B6972
:102588001B68FB60FB7B23F07F03DBB2002B03D0CF
:10259800FB7B43F04003FB73BB7B43F02003BB731F
:1025A800FA683B691A6011E03B681B787A68143353
:1025B8009B0013445B683B613B691B68FB60BB7B0A
:1025C80043F02003BB73FA683B691A60FB7D184629
:1025D8001C37BD4680BC704780B487B000AF7860B8
:1025E80039600023FB740023FB603B685B78012B98
:1025F80008D13B681B787A6804339B0013449B68B6
:102608007B6107E03B681B787A6814339B001344AE
:102618005B687B617B691B68FB60BB7B6FF3451361
:10262800BB733B68DB78032B03D03B68DB78022B5A
:1026380003D1FB7B43F01003FB73FA687B691A60D4
:10264800FB7C18461C37BD4680BC704780B485B0FB
:1026580000AF78607B681B699B69FB607B681B69BE
:10266800DB69FA681340FB60FB681B0C18461437DB
:10267800BD4680BC704700BF80B485B000AF7860AD
:102688000B46FB70FB787A6814339B0013445B6835
:102698009B68FB607B681B695B69FA681340FB6099
:1026A800FB6818461437BD4680BC704780B485B0B7
:1026B80000AF78607B681B699B69FB607B681B695E
:1026C800DB69FA681340FB60FB689BB21846143755
:1026D800BD4680BC704700BF80B487B000AF78604B
:1026E80000233B61FB7C43F0C003FB74BB7C0122ED
:1026F80062F3C403BB743B7C182262F306033B7489
:102708007B685B6D3A691A617B68DB78012B16D1AF
:102718000023FB607B685B6D7A6802F2CC525A61D9
:102728007B685B6D1B68FB60FB7B43F08003FB737E
:102738004FF08023FB607B685B6DFA681A6000BF0E
:102748001C37BD4680BC704780B485B000AF786048
:102758007B689B7A002B1BD07B681B699B68FB609E
:102768003B7B03F00103DBB2002B11D07B6803F540
:1027780086731B68BB603B7A6FF341033B723B7AFD
:102788006FF300033B727B68D3F80C31BA681A60A8
:1027980000BF1437BD4680BC704700BF0000000072
:1027A80090B587B000AFC7E9000111A3D3E90023B2
:1027B800D7E90001FEF724F803460C4618462146DF
:1027C8000DA3D3E90023FEF71BF803460C46C7E91F
:1027D8000434D7E90401FEF741FB03460C46C7E978
:1027E8000234D7E90234184621461C37BD4690BD4D
:1027F800FA48CE3B1835B13D0000000080842E41D8
:1028080090B585B000AF78604FF000034FF000043A
:10281800C7E902347868FDF763FE09A3D3E900230A
:10282800FDF7C4FE03460C46C7E90234D7E9023473
:10283800184621461437BD4690BD00BFAFF300804F
:10284800FA48CE3B1835B13DB0B590B000AF7860CE
:102858007B6803F5287318CBC7E90C34D7E90C3427
:10286800002B74F1800306DBD7E90C34003364F1E4
:10287800FF04C7E90C343B6B1846FFF7C1FFC7E9F3
:10288800060193A3D3E90023D7E90601FDF78EFEDD
:1028980003460C46C7E90434954AD7E90434C2E92B
:1028A80000347B685B7C002B1BD07B681B7A052B74
:1028B8000BD189A3D3E90023D7E90401FDF7A0FFD1
:1028C80003460C46C7E90E340FE085A3D3E900237D
:1028D800D7E90401FDF794FF03460C46C7E90E3417
:1028E80003E0D7E90434C7E90E347B681C7AD7E9DA
:1028F8000E01FEF73DF901467B685B7A1A462046D1
:1029080009F02AFE03460C461A462346D7E9040175
:10291800FDF798FC03460C46C7E904344FF0000263
:102928004FF00003D7E90401FEF7B2F80346002B85
:1029380040F0C7806CA3D3E90023D7E90401FEF770
:10294800C5F80346002B40F0BC806A4AD7E9043436
:10295800C2E900347B6803F54A73D3E90001D7E97B
:102968000423FDF771FC03460C467A6802F54A72A7
:10297800C2E900347B68D3F830335A1C7B68C3F84B
:1029880030237B6803F54A73D3E900457B68D3F8A5
:1029980030331846FDF7A4FD02460B46204629466B
:1029A800FDF72EFF03460C46C7E90234524AD7E921
:1029B8000234C2E900347B68D3F83433591C7A688E
:1029C800C2F834137A685933DB001A44D7E904345F
:1029D800C2E900347B6803F55273D3E90001D7E9F3
:1029E8000423FEF773F80346002B06D07B6803F533
:1029F8005272D7E90434C2E900347B6803F5507396
:102A0800D3E90001D7E90423FEF742F80346002B77
:102A180006D07B6803F55072D7E90434C2E9003464
:102A28007B68D3F83433082B03D17B680022C3F8C2
:102A380034237B68D3F83833082B39D14FF000039F
:102A48004FF00004C7E908340023FB6212E07A68FB
:102A5800FB6A5933DB00134418CB1A462346D7E9DF
:102A68000801FDF7F1FB03460C46C7E90834FB6A89
:102A78000133FB627B68D3F83823FB6A9A42E6DCB1
:102A88007B68D3F838331846FDF72AFD03460C4611
:102A98001A462346D7E90801FDF7B2FE03460C465D
:102AA800C7E90834154AD7E90834C2E9003409E00F
:102AB8007B68D3F838335A1C7B68C3F8382300BFC7
:102AC80000E000BF4037BD46B0BD00BFAFF3008097
:102AD8000000001319DDB141295C8FC2F528F83FC9
:102AE800F6285C8FC2F5F43F000000000088D34050
:102AF800480B0020400B0020580B0020500B0020F2
:102B080080B586B000AF7860396007F10C03002209
:102B18001A605A607B68D3F8B0325A1C7B68C3F8D5
:102B2800B0220023FB752EE0FB7D6E33DB007A6854
:102B3800134408223968184609F0EAFD0346002BB9
:102B480025D0FB7D6E33DB007A68134407F10C0156
:102B58000822184609F0DCFD0346002B10D1FB7D46
:102B68006E33DB007A681344082239681846FEF78A
:102B780099F9FB7D0133DAB27B6883F86E2307E0AD
:102B8800FB7D0133FB75FB7D002BCDD000E000BF42
:102B9800002318461837BD4680BD00BF80B584B0F5
:102BA80000AF0023FB603B1D00221A605A60194ADF
:102BB800FB684FF4D06101FB03F3134403F26E3357
:102BC80000221A70134AFB684FF4D06101FB03F32B
:102BD800134403F52C7300221A600E4AFB684FF465
:102BE800D06101FB03F3134403F26D3300221A7022
:102BF800FB684FF4D06202FB03F303F55C73054AEC
:102C08001344391D08221846FEF74CF900BF103747
:102C1800BD4680BD000D002080B483B000AF786051
:102C28007B68DAB2034B1A7000BF0C37BD4680BC14
:102C3800704700BF000D002080B400AF074BD3F8E9
:102C48005833002B05D0054B0022C3F85823012325
:102C580000E000231846BD4680BC7047000D0020E8
:102C680080B400AF034BD3F860331846BD4680BC30
:102C7800704700BF000D002080B400AF034BD3F8AD
:102C880064331846BD4680BC704700BF000D002065
:102C980080B400AF034B93F86C331846BD4680BC34
:102CA800704700BF000D002080B400AF074B93F8B9
:102CB8006C33012B05D1054B002283F86C230123CB
:102CC80000E000231846BD4680BC7047000D002078
:102CD80090B583B000AF00237B60514A7B684FF406
:102CE800D06101FB03F31344643300221A604C4A99
:102CF8007B684FF4D06101FB03F3134403F51473AD
:102D080000221A70012002F0ADFC454A7B684FF49E
:102D1800D06101FB03F3134403F5147300221A7006
:102D28003F4A7B684FF4D06101FB03F3134403F57A
:102D38004E7300221A603A4A7B684FF4D06101FB57
:102D480003F3134403F54D7300221A60344A7B6879
:102D58004FF4D06101FB03F3134403F52D730022F4
:102D68001A602F4A7B684FF4D06101FB03F31344C8
:102D780003F52E7300221A60294A7B684FF4D0614C
:102D880001FB03F3134403F52F7300221A60244A4E
:102D98007B684FF4D06101FB03F3134403F53073F0
:102DA80000221A601E4A7B684FF4D06101FB03F3CE
:102DB800134403F54A724FF000034FF00004C2E9D0
:102DC8000034174A7B684FF4D06101FB03F31344C6
:102DD80003F54C7300221A60114A7B684FF4D061E6
:102DE80001FB03F3134403F550724FF000034FF057
:102DF8000004C2E900340A4A7B684FF4D06101FB41
:102E080003F3134403F552724FF00003054CC2E973
:102E18000034FFF7C3FE00BF0C37BD4690BD00BFAE
:102E2800000D002000408F4090B583B000AF002314
:102E38007B605F4A7B684FF4D06101FB03F3134466
:102E480002221A705A4A7B684FF4D06101FB03F3DF
:102E5800134403F2892300221A70554A7B684FF401
:102E6800D06101FB03F3134403F54D7300221A608C
:102E78004F4A7B684FF4D06101FB03F3134403F519
:102E88004E7300221A604A4A7B684FF4D06101FBF6
:102E980003F3134403F528724FF000034FF00004C6
:102EA800C2E9003440F60F0001F03CFB3860032013
:102EB80002F0CAF93B68002B02D04FF0FF3372E0F2
:102EC800FFF706FF3A4A7B684FF4D06101FB03F332
:102ED8001344223301221A70354A7B684FF4D061BB
:102EE80001FB03F3134403F252234DF6CA621A801E
:102EF8002F4A7B684FF4D06101FB03F3134403F5B9
:102F0800227300221A702A4A7B684FF4D06101FBB1
:102F180003F3134403F28A2300221A70244A7B68BD
:102F28004FF4D06101FB03F3134403F28B23002217
:102F38001A7000F081FF7B684FF4D06202FB03F344
:102F480003F510731A4A13440433184601F042FF7C
:102F5800184A7B68002142F82310154A7B684FF411
:102F6800D06101FB03F3134403F55B7300221A706D
:102F78000F4A7B684FF4D06101FB03F3134403F558
:102F88002A724FF000034FF00004C2E90034084AE7
:102F98007B684FF4D06101FB03F3134403F27363BE
:102FA80000221A70002318460C37BD4690BD00BF9A
:102FB800000D00208013002080B500AF01F0D6FB83
:102FC8000346184680BD00BF80B586B000AF786064
:102FD80000233B610323FB6000237B617B68187837
:102FE8008D4A3B694FF4D06101FB03F31344083366
:102FF80002461A707B685878874A3B694FF4D0615B
:1030080001FB03F313440D3302461A707B685878AA
:10301800814A3B694FF4D06101FB03F313440C333D
:1030280002461A707B6898787B4A3B694FF4D061F6
:1030380001FB03F31344093302461A707B68D878FE
:10304800754A3B694FF4D06101FB03F313440F3316
:1030580002461A707B6818796F4A3B694FF4D06151
:1030680001FB03F313440A3302461A707B6858794C
:10307800694A3B694FF4D06101FB03F313440B33F6
:1030880002461A707B689879634A3B694FF4D061AD
:1030980001FB03F313440E3302461A705E4A3B6980
:1030A8004FF4D06101FB03F31344103300221A706C
:1030B8007B681889584A3B694FF4D06101FB03F3D8
:1030C8001344123302461A803B694FF4D06202FB64
:1030D80003F30833504A1344FA68D2B2114618462B
:1030E80001F082FB7B681B7819464C4A0B465B0053
:1030F8000B449B0013441878474A3B694FF4D0614E
:1031080001FB03F31344143302461A707B68987862
:10311800414A3B694FF4D06101FB03F31344083380
:103128001B78194601F042FB78617B69002B03D0BC
:103138007B69B3F1FF3F0ED17B681B7818467B682B
:103148009B785A1E354903465B00034413449B0091
:103158000B445B687B61304A3B694FF4D06101FBEB
:1031680003F3134418337A691A603B694FF4D06249
:1031780002FB03F31033284A13440433184601F0C2
:10318800FFFA254A3B694FF4D06101FB03F313446E
:10319800203300221A70FB6803F00203002B41D190
:1031A8007B689B78013B1E4A32F813001A4A3B6938
:1031B8004FF4D06101FB03F313441C3302461A8019
:1031C800154A3B694FF4D06101FB03F313441C33E8
:1031D8001888114A3B694FF4D06101FB03F313448B
:1031E8001E3302461A800C4A3B694FF4D06101FB3A
:1031F80003F313441C331B88184601F093FC064A5A
:103208003B694FF4D06101FB03F313441C331B8863
:10321800184601F09DFC70E0000D002038070108F9
:10322800340701087B689B78184601F0A7FC034621
:103238005B0898B2394A3B694FF4D06101FB03F34C
:1032480013441C3302461A80344A3B694FF4D06158
:1032580001FB03F313441C331888304A3B694FF4CD
:10326800D06101FB03F313441E3302461A802B4A34
:103278003B694FF4D06101FB03F313441C331B88F3
:10328800002B3AD17B689B78013B254A32F8130022
:10329800224A3B694FF4D06101FB03F313441C330A
:1032A80002461A801D4A3B694FF4D06101FB03F3C3
:1032B80013441C331888194A3B694FF4D06101FB49
:1032C80003F313441E3302461A80144A3B694FF431
:1032D800D06101FB03F313441C331B88184601F02B
:1032E80021FC0E4A3B694FF4D06101FB03F3134400
:1032F8001C331B88184601F02BFC7B681B79042BB8
:1033080008D1202007F01EFB002001F011FE082044
:1033180007F018FB00BF1837BD4680BD000D002020
:103328003407010880B485B000AF786039600023A5
:10333800FB600C4AFB684FF4D06101FB03F31344B4
:1033480024337A681A60074AFB684FF4D06101FB9E
:1033580003F3134428333A681A6000BF1437BD4694
:1033680080BC7047000D002080B483B000AF054BCF
:10337800D3F830337B607B6818460C37BD4680BC79
:10338800704700BF000D002090B482B000AF064B1C
:1033980018CBC7E90034D7E9003418462146083766
:1033A800BD4690BC704700BF400B002090B482B06F
:1033B80000AF064B18CBC7E90034D7E900341846EC
:1033C80021460837BD4690BC704700BF480B002017
:1033D80090B482B000AF064B18CBC7E90034D7E9E8
:1033E8000034184621460837BD4690BC704700BFD8
:1033F800500B002080B582B000AF78607B685B6EB0
:103408005A1C7B685A667B6800225A607B681B7866
:10341800022B06D17B6806225A70002002F0D6F8EB
:103428001DE07B6801225A707B681B78012B13D141
:103438007B68DB78032B03D17B680222C3F85C230B
:103448007B68DB78022B03D17B680122C3F85C23FD
:103458007B6802229A7002E07B6809229A7002F067
:1034680035F800BF0837BD4680BD00BFB0B5CEB047
:1034780022AF78600023C7F8AC3007F1A40300221C
:103488001A601A717B681B7987F8AB3097F8AB30F4
:10349800012B74D107F1A403184601F0ABFB97F890
:1034A800A4301A4697F8A5301B021A4497F8A6309C
:1034B8001B041A4497F8A7301B061344BB6197F8FE
:1034C800A830DAB24FF00003C7E90423D7E9042390
:1034D80015000024C7E90445D7E90412BB694FF079
:1034E80000045B1844EB0204C7E9043497F8A830D9
:1034F8001A06BB691B0A1344FB61344AD7F8AC307F
:103508004FF4D06101FB03F3134403F28A23002232
:103518001A700023BB8101233B723B7A7B72684699
:1035280007F1180388221946FDF7BCFC07F10803C8
:103538000FCB00F0EFFA254AD7F8AC304FF4D06142
:1035480001FB03F3134422331B78002B2DD01F4AB1
:10355800D7F8AC304FF4D06101FB03F3134403F503
:103568002D731B685A1C1949D7F8AC304FF4D0603A
:1035780000FB03F30B4403F52D731A6015E097F86D
:10358800AB30062B11D10023BB8106233B723B7A5B
:103598007B72684607F1180388221946FDF782FCFA
:1035A80007F108030FCB00F0B5FA084AD7F8AC309A
:1035B8004FF4D06101FB03F3134403F27363002259
:1035C8001A7000BFB037BD46B0BD00BF000D002067
:1035D800B0B5CEB022AF78600023C7F8A83007F1A5
:1035E800A00300221A601A71002387F8AF30002365
:1035F80087F8AE30002387F8AD307B681B79022B43
:1036080040F00382022387F8AE307B68DB88BB81F9
:103618007B681B7A412B20D0412B02DC022B18D06F
:103628004DE0612B19D0C52B49D17B68DB880C2B69
:1036380003D1072387F8AE3045E07B68DB88122B7F
:1036480003D1072387F8AE303DE0632387F8AE3017
:1036580039E0632387F8AE3035E07B68DB887F2B61
:1036680002D9632387F8AE307B685B7A03F0CC031A
:10367800882B06D1092387F8AD30072387F8AF30A8
:1036880021E07B685B7A03F0CC03CC2B06D11523B1
:1036980087F8AD300D2387F8AF3014E00F2387F893
:1036A800AD307B685B7A03F0CC038C2B03D10D2300
:1036B80087F8AF3007E0072387F8AF3003E06323CC
:1036C80087F8AE3000BF97F8AE30072B03D097F8D5
:1036D800AE30022B3BD107F1A003184601F090FA57
:1036E80097F8A0301A4697F8A1301B021A4497F8A9
:1036F800A2301B041A4497F8A3301B061344BB617D
:1037080097F8A430DAB24FF00003C7E90423D7E9E9
:10371800042315000024C7E90445D7E90412BB694E
:103728004FF000045B1844EB0204C7E9043497F82F
:10373800A4301A06BB691B0A1344FB617B68D9884D
:1037480007F1080318330022184601F049FA97F8E0
:10375800AE303B723B7A7B7297F8AE30022B40F06A
:103768000D81D84AD7F8A8304FF4D06101FB03F394
:10377800134403F26E331B78002B00F0C38097F8D4
:10378800AD3007F1B002134413F8903C102B00F051
:10379800B880212B00D0B5E00023A7F8A630D7E9E0
:1037A8000434C849D7F8A8204FF4D06000FB02F2CF
:1037B8000A4402F51C72C2E90034C24AD7F8A8309C
:1037C8004FF4D06101FB03F31344603300221A6005
:1037D8002023A7F8A630D7F8A8304FF4D06202FB10
:1037E80003F3E833B74A134403F1080097F8AF30FE
:1037F80007F108021833134408221946FDF752FB53
:10380800D7F8A8304FF4D06202FB03F3FC33AD4A7B
:10381800134403F10800D7F8A8304FF4D06202FB34
:1038280003F303F52873A74A134405221946FDF745
:1038380039FBA44AD7F8A8304FF4D06101FB03F351
:10384800134403F528724FF000034FF00004C2E957
:1038580000349C4AD7F8A8304FF4D06101FB03F339
:10386800134403F514731B785A1CD4B29549D7F83E
:10387800A8204FF4D06000FB02F20A4402F514724B
:10388800214611708F49D7F8A8204FF4D06000FB6B
:1038980002F20A44ED3213708A4AD7F8A8304FF47E
:1038A800D06101FB03F313444C331B68184601F045
:1038B8005BFB844AD7F8A8304FF4D06101FB03F3CF
:1038C800134403F5227302221A70B7F8A6300021B8
:1038D800184601F077F9D7F8A8304FF4D06202FB08
:1038E80003F3E833774A1344D91CB7F8A63000220B
:1038F800184601F057F9022001F08CFD0C23BB7229
:1039080000E000BF6F4AD7F8A8304FF4D06101FB40
:1039180003F3134403F28A2301221A70684607F15D
:10392800180388221946FDF7BDFA07F108030FCBE3
:1039380000F0F0F8634AD7F8A8304FF4D06101FBE3
:1039480003F3134422331B78002B4AD05D4AD7F87F
:10395800A8304FF4D06101FB03F3134403F52E7331
:103968001B685A1C5749D7F8A8304FF4D06000FBA1
:1039780003F30B4403F52E731A6032E097F8AE3068
:10398800072B2ED1684607F1180388221946FDF740
:1039980089FA07F108030FCB00F0BCF8494AD7F8B9
:1039A800A8304FF4D06101FB03F3134422331B7892
:1039B800002B16D0434AD7F8A8304FF4D06101FB4A
:1039C80003F3134403F52E731B685A1C3D49D7F8BB
:1039D800A8304FF4D06000FB03F30B4403F52E73BB
:1039E8001A6097F8AE30632B68D1D7F8A8304FF437
:1039F800D06202FB03F3334A98184FF000024FF0ED
:103A08000003002103F014FE58E07B681B79042BA7
:103A18001CD104233B723B7A7B720023BB814FF09D
:103A280000034FF00004C7E904340023BB610023FE
:103A3800FB61684607F1180388221946FDF732FA38
:103A480007F108030FCB00F065F837E01D4AD7F8F7
:103A5800A8304FF4D06101FB03F313441B78012B0A
:103A68000AD0184AD7F8A8304FF4D06101FB03F305
:103A780013441B78032B12D104233B7244237B721B
:103A88000023BB81684607F1180388221946FDF711
:103A980009FA07F108030FCB00F03CF80EE0D7F85D
:103AA800A8304FF4D06202FB03F3064A98184FF08F
:103AB80000024FF00003002103F0BAFD00BFB03749
:103AC800BD46B0BD000D002080B483B000AF002318
:103AD8007B600F4A7B684FF4D06101FB03F313440A
:103AE80003F272631B78184609497B68982202FB27
:103AF80000F24FF4D06000FB03F313440B4403F5CA
:103B08005E731B7818460C37BD4680BC704700BFF3
:103B1800000D002084B080B582B000AF07F1100E10
:103B28008EE80F0000237B603B7CFB7000233B7416
:103B3800364A7B684FF4D06101FB03F3134403F268
:103B480071631B78184631497B68982202FB00F2A2
:103B58004FF4D06000FB03F313440B4403F55E738A
:103B6800184607F1100198231A46FDF79BF9274AD2
:103B78007B684FF4D06101FB03F3134403F27163D4
:103B88001B78184621497B68982202FB00F24FF403
:103B9800D06000FB03F313440B4403F55E73FA781B
:103BA8001A701A4A7B684FF4D06101FB03F313447F
:103BB80003F271631B780133D8B2144A7B684FF45F
:103BC800D06101FB03F3134403F2716302461A70D8
:103BD8000E4A7B684FF4D06101FB03F3134403F2F0
:103BE80071631B78042B0AD1084A7B684FF4D061B3
:103BF80001FB03F3134403F2716300221A7000BF40
:103C08000837BD46BDE8804004B07047000D00206D
:103C180090B585B000AF78600023FB60844AFB68EC
:103C28004FF4D06101FB03F3134403F5CE631B7813
:103C3800BB607F49BA68FB68982000FB02F24FF42A
:103C4800D06000FB03F313440B4403F55E731B7849
:103C5800002B07D1774B00221A70764B00225A703E
:103C6800744BE0E07249BA68FB68982000FB02F2E6
:103C78004FF4D06000FB03F313440B4403F2793391
:103C88001A786C4B5A706A49BA68FB68982000FB2E
:103C980002F24FF4D06000FB03F313440B4403F229
:103CA8007A331A78634B9A706149BA68FB6898202E
:103CB80000FB02F24FF4D06000FB03F313440B4403
:103CC80003F55F731A885B4B9A805949BA68FB6899
:103CD800982000FB02F24FF4D06000FB03F313447A
:103CE8000B4403F5607318CB524AC2E902345049B9
:103CF800BA68FB68982000FB02F24FF4D06000FB22
:103D080003F313440B4403F562731B68494A1361B8
:103D18004749BA68FB68982000FB02F24FF4D0606C
:103D280000FB03F313440B4403F563731B68414A18
:103D38005361BB68982202FB03F2FB684FF4D06121
:103D480001FB03F3134403F56473394A1A44394BEE
:103D5800183311467F221846FDF7A4F83449BA688B
:103D6800FB68982000FB02F24FF4D06000FB03F3DD
:103D780013440B4403F55E731A782E4B1A702C49C2
:103D8800BA68FB68982000FB02F24FF4D06000FB91
:103D980003F313440B4403F55E7300221A70244A9C
:103DA800FB684FF4D06101FB03F3134403F5CE63C2
:103DB8001B780133D8B21E4AFB684FF4D06101FB6F
:103DC80003F3134403F5CE6302461A70184AFB68DE
:103DD8004FF4D06101FB03F3134403F5CE631B7862
:103DE800042B0AD1124AFB684FF4D06101FB03F39C
:103DF800134403F5CE6300221A700D4AFB684FF492
:103E0800D06101FB03F3134403F5CE631878084A25
:103E1800FB684FF4D06101FB03F3134403F27263B0
:103E280002461A70034B18461437BD4690BD00BFB2
:103E3800000D0020680C002080B582B000AF002380
:103E48007B6000233B6000237B6015E07B68982241
:103E580002FB03F23B684FF4D06101FB03F3134408
:103E680003F55E73184A1344982200211846FDF79B
:103E78005DFA7B6801337B607B68032BE6DD124AC1
:103E88003B684FF4D06101FB03F3134403F2716301
:103E980000221A700C4A3B684FF4D06101FB03F30F
:103EA800134403F5CE6300221A70074A3B684FF4A7
:103EB800D06101FB03F3134403F2726300221A700A
:103EC80000BF0837BD4680BD000D002080B485B016
:103ED80000AF78600023FB600449FB687A6841F80A
:103EE800232000BF1437BD4680BC704780130020D4
:103EF80090B5CDB022AF0023C7F89C300023C7F897
:103F0800A430FFF7E1FDC7F8A00015E0784AD7F81C
:103F18009C3052F82330D7F89C204FF4D06101FB35
:103F280002F274490A44D7F8A01010469847C7F817
:103F3800A4000023C7F8A030D7F8A430002BE5D0A0
:103F4800D7F8A430022B40F087806A4AD7F89C3013
:103F58004FF4D06101FB03F313441B78012B2CD1E0
:103F6800644AD7F89C304FF4D06101FB03F3134443
:103F780003F524731B685F49D7F89C204FF4D06081
:103F880000FB02F20A44243212681A445949D7F84D
:103F98009C304FF4D06000FB03F30B4403F523730C
:103FA8001A60544AD7F89C304FF4D06101FB03F3F0
:103FB800134403F28B2301221A704E4AD7F89C301F
:103FC8004FF4D06101FB03F313441B78032B2CD16E
:103FD800484AD7F89C304FF4D06101FB03F31344EF
:103FE80003F523731B684349D7F89C204FF4D0602E
:103FF80000FB02F20A44283212681A443D49D7F8F5
:104008009C304FF4D06000FB03F30B4403F523739B
:104018001A60384AD7F89C304FF4D06101FB03F39B
:10402800134403F28B2301221A70324AD7F89C30CA
:104038004FF4D06101FB03F3134403F28A230022F7
:104048001A702C4AD7F89C304FF4D06101FB03F367
:104058001344043300221A60264AD7F89C304FF4E0
:10406800D06101FB03F3134403F28B231B78012B6C
:1040780039D1204AD7F89C304FF4D06101FB03F3C3
:10408800134403F28A231B78002B2CD1194AD7F842
:104098009C304FF4D06101FB03F3134403F5237301
:1040A8001C6806F051FB03469C421CD2114AD7F803
:1040B8009C304FF4D06101FB03F3134403F28B23CC
:1040C80000221A700023BB8004233B7084237B707A
:1040D800684607F1100388221946FCF7E3FE3B46C1
:1040E8000FCBFFF717FD00231846AC37BD4690BD30
:1040F80080130020000D002080B483B000AF7860EA
:10410800044A7B68C2F8783600BF0C37BD4680BCCD
:10411800704700BF000D002080B483B000AF034695
:104128000A46FB801346BB80074AFB889383064AEE
:10413800BB88D383044B012283F8202000BF0C37AF
:10414800BD4680BC704700BF000D002080B500AFA1
:104158000A4B93F82030012B0DD1084BDB8B184606
:1041680000F0E0FC054B9B8B184600F0F1FC034B7C
:10417800002283F8202000BF80BD00BF000D002072
:1041880080B400AF024B9B8B1846BD4680BC70477D
:10419800000D002080B400AF024BDB8B1846BD46F3
:1041A80080BC7047000D002080B584B000AF7860F7
:1041B80008F098FAF8607B68094AA2FB03239B0978
:1041C800BB6000BF08F08EFA0246FB68D21ABB68D3
:1041D8009A42F7D3002318461037BD4680BD00BF6A
:1041E800D34D6210EFF30883184670471C462346E8
:1041F800184600BF80B400AF00BFBD4680BC704702
:1042080080B483B000AF0346FB71FB79002B01D06B
:10421800012B00E000BF00BF0C37BD4680BC7047D3
:1042280080B400AF00BFBD4680BC704780B400AF0B
:1042380000BFBD4680BC704780B400AF00BFBD461C
:1042480080BC704780B400AF00BFBD4680BC7047DB
:1042580080B400AF00BFBD4680BC704780B584B055
:1042680000AF78604FF40073BB810423FB73032312
:10427800BB7307F10C031946124801F063FB4FF4B6
:104288008063BB814823FB730323BB7307F10C03D3
:1042980019460C4801F056FB4FF4C053BB8110235C
:1042A800FB730323BB7307F10C031946054801F0A0
:1042B80049FB01214FF4805003F090F800BF1037FC
:1042C800BD4680BD0008014080B584B000AF78606D
:1042D8004FF4C06007F0F4FC43233B7301237B7366
:1042E8000323BB730123FB7307F10C03184607F084
:1042F800F9FC00BF1037BD4680BD00BF80B485B053
:1043080000AF78600023FB607A6813461B019B1A94
:10431800DB001A460A4BA3FB0213D21A52081344B5
:104328009B08BB60FB680133FB60FA68BB689A4274
:1043380000D8F7E700BF1437BD4680BC704700BF00
:104348002549922480B582B000AF78607B684FF42D
:104358007A7202FB03F31846FFF7D0FF00BF083755
:10436800BD4680BD80B500AF1A4A1A4B1B6843F0A2
:10437800010313601749174B5A68174B13404B60DA
:10438800144A144B1B6823F0847323F4803313609E
:10439800104A104B1B6823F4802313600D4A0D4B01
:1043A8005B6823F4FE0353600A4A0A4B1B6823F038
:1043B800A0531360074B4FF47F029A60054B00220D
:1043C800DA6200F00DF8054B4FF000629A6000BF0A
:1043D80080BD00BF001002400000FFF000ED00E0CB
:1043E80080B500AF00F002F800BF80BD80B483B094
:1043F80000AF00237B6000233B60474A464B1B68A5
:1044080043F480331360444B1B6803F400333B6070
:104418007B6801337B603B68002B03D17B68B3F575
:10442800A06FF0D13C4B1B6803F40033002B02D083
:1044380001233B6001E000233B603B68012B66D110
:10444800364A364B1B6843F010031360334A334B2C
:104458001B6823F003031360304A304B1B6843F09A
:10446800020313602C4A2C4B5B6853602A4A2A4B80
:104478005B685360284A284B5B6843F48063536049
:104488002549254BDA6A264B1340CB62224A224B38
:10449800DB6A43F4833343F04403D3621E4A1E4B62
:1044A8001B6843F08063136000BF1B4B1B6803F05D
:1044B8000063002BF9D0184A174B5B6823F47C1370
:1044C8005360154A144B5B6843F4E8135360124A6F
:1044D800114B1B6843F08073136000BF0E4B1B68C1
:1044E80003F00073002BF9D00B4A0B4B5B6823F0E9
:1044F80003035360084A084B5B6843F002035360A8
:1045080000BF054B5B6803F00C03082BF9D100BF13
:104518000C37BD4680BC70470010024000200240A6
:1045280000F0FEFF80B586B000AF0346FB80002395
:104538007B610423FB7200237B827A4B002283F881
:104548006C20784B00225A77764B00221A67754BFD
:10455800002283F85920734B00225A67714B0022BE
:1045680083F86D206F4B00229A676E4B0022DA6742
:1045780000F0FCF802466B4B1A606A4B1B686A4AEB
:10458800934202D04FF0FF33C7E0002000F0BEFE98
:1045980007F10B0301220021242000F037FB1E2025
:1045A80000F01EFC03467B827B8A1B0A9BB2DAB2B0
:1045B8005C4B9A73FB8803F00803002B05D004209A
:1045C80000F00EFC0246574B5A67564B5B6FDBB246
:1045D800002B09D00223BB7207F10A030122122122
:1045E8002D2000F013FB02E04E4B00225A670620F4
:1045F80000F0F6FB02464B4B5A60072000F0F0FB38
:104608000246484B9A60FB8803F00203002B06D051
:104618001C2000F0E5FB0246424B9A6102E0414B48
:1046280000229A61FB8803F00103002B12D07B8AD9
:10463800DBB203F01F03DAB23A4B1A77394B1B7F10
:10464800002B0ED1394B1B7803F01F03DAB2354B20
:104658001A7706E0354B1B7803F01F03DAB2314BAB
:104668001A77FB8803F00403002B15D000237B6125
:104678000EE07B691033184600F0B2FB0146294A68
:104688007B6908339B00134459607B6901337B6164
:104698007B690B2BEDDD0FE000237B6109E0214AEC
:1046A8007B6908339B00134400225A607B690133FD
:1046B8007B617B690B2BF2DDFB8803F40063002B25
:1046C80002D000F017FC0FE00521362000F016FBA1
:1046D80003463B823B8A23F400733B823B8A1A469B
:1046E8000521362000F022FB012000F00FFE0021FA
:1046F800042000F0E1FA02460A4B1A620021262043
:1047080000F0DAFAF860FB6843F4A023FB60FA686B
:104718000021262000F01AFB002318461837BD4652
:1047280080BD00BF600B00203001CADE22080108EE
:1047380080B400AF024B5B6F1846BD4680BC704723
:10474800600B002080B400AF024B5B681846BD4682
:1047580080BC7047600B002080B400AF024B9B68A0
:104768001846BD4680BC7047600B002080B500AF7E
:104778000021002000F0A0FA0346184680BD00BFC3
:1047880080B582B000AF78607B6801220B212A20B7
:1047980000F03CFA7B685B681A4600211E2000F096
:1047A800D5FA00BF0837BD4680BD00BF80B483B0CE
:1047B80000AF03460A46FB711346BB71FB795A1ECC
:1047C800BB790749CB5C5B001344064A08339B005E
:1047D80013445B6818460C37BD4680BC704700BF61
:1047E800E4070108600B002080B588B000AF78604E
:1047F8000B46FB700023FB770023BB777B681B7895
:10480800FB767B685B791A46BA4B33F81230BB8368
:104818007B685B78013BB84A1367B74B1B6FBB7665
:10482800FB7E042B02D0FB7E072B01D1012300E085
:1048380000237B767B681A78AF4B1A737B68DB7929
:10484800002B09D1AC4B1B6A43F48003AA4A1362BC
:10485800BB8BDB08BB8305E0A74B1B6A23F48003F3
:10486800A54A13627B681A7AA34B5A73A24B1A6A39
:104878007B681B7A1B0403F4403313439E4A13627C
:104888009D4B1B6A1A460021042000F05FFABB8B7F
:104898001A4642F604012E2000F048FABB7E18465C
:1048A80000F008FBFB7E954AD35C1A4613469B0032
:1048B8001344934A1344052207212B2000F0A6F93C
:1048C800904B01220E212B2000F0A0F97B7E8E4A0E
:1048D800134401220B21282000F098F9FB7E874A17
:1048E800D35C1A46894B53F822301A460C212820EB
:1048F80000F02CFA7B68DB7918467B689B791946AF
:10490800834A43000B4432F813301A460221272009
:1049180000F00CFABB7E7F4A32F813301A460421A5
:10492800272000F003FA7B68DB79002B05D164228D
:104938000621272000F0FAF920E07B689B78042BF9
:104948000ED11023FB7310220621272000F0EEF968
:1049580007F10F0301222621272000F057F90DE067
:104968002823BB7320220621272000F0DFF907F156
:104978000E0301222621272000F048F9BB7E7A6821
:10498800D2781146644A9B000B4452F823301A46E9
:104998000821272000F0DAF97B685B899BB241F295
:1049A8004102934207D07B685B899BB21A4620215B
:1049B800272000F0BBF97B685B899BB2002B05D1EF
:1049C80041F241022021272000F0B0F9534B1B6827
:1049D8001A460C21232000F0B9F9BB7E4F4A5B0030
:1049E80013449B881A460421232000F09FF97B6812
:1049F8009B79002B0DD07B68DB791A46484B134412
:104A080001220021212000F001F90323FB77012373
:104A1800BB77FB7E03F00F02FB7E1B01DBB21A4360
:104A28007B685B789B0403F440231A43FB7F1B05D8
:104A380003F440131A43BB7F5B0403F400331A43A7
:104A48007B681B799B0503F0F86313437A685279F6
:104A5800D20613437B617A6900211F2000F076F9A2
:104A68007B689A787B685B781343DBB21B043B61F5
:104A78007B68DB795B031A463B69134343F40043C5
:104A88001D4A13611C4B1B691A460021082000F0BF
:104A98005DF9FB7803F00103002B04D0164B1B7F54
:104AA800184600F04FFEFB7803F00203002B1BD0E2
:104AB800114B9A69BB7E1B0122FA03F35B089BB278
:104AC800C3F30E039BB2184600F02CF80A4B9A6900
:104AD800BB7E1B0122FA03F35B089BB2C3F30E03F0
:104AE8009BB2184600F034F8002318462037BD461C
:104AF80080BD00BF64080108600B0020E4070108BE
:104B0800040801082208010824080108EC07010824
:104B18003408010840080108440801082808010869
:104B28003008010880B582B000AF0346FB80074A11
:104B3800FB889382054B9B8A1A4641F604012E2076
:104B480000F0F4F800BF0837BD4680BD600B0020B8
:104B580080B582B000AF0346FB80074AFB88D3824A
:104B6800054BDB8A1A460021182000F0DFF800BF49
:104B78000837BD4680BD00BF600B002080B483B0FD
:104B880000AF0346FB71064B9A69FB79013B1B0199
:104B980022FA03F39BB218460C37BD4680BC704717
:104BA800600B002008B51318B3F5806F07DC0B46BF
:104BB8001146821E092000F029F8002008BD4FF098
:104BC800FF3008BD08B5054B1A69024342EA815215
:104BD8000820002100F0BAF8002008BD600B002072
:104BE80010B4144603460A461120214610BC00F0B2
:104BF80039B800BF034605220021172000F032B85B
:104C0800034605220021152000F02CB800B583B01A
:104C1800E1B160F03F007F298DF804000DD961F003
:104C28007F00C9098DF805008DF80610032001A939
:104C380000F0A4FD03B05DF804FB8DF80510022018
:104C480001A900F09BFD03B05DF804FB60F07F0054
:104C58008DF8040001A9012000F090FD03B05DF873
:104C680004FB00BF00B583B0E1B140F040007F29EC
:104C78008DF804000DD961F07F00C9098DF8050091
:104C88008DF80610032001A900F0B2FD03B05DF80D
:104C980004FB8DF80510022001A900F0A9FD03B05E
:104CA8005DF804FB8DF8040001A9012000F0A0FDC7
:104CB80003B05DF804FB00BF00B583B089B280B2D1
:104CC80001AB0422FFF7CEFF20B14FF0FF3003B055
:104CD8005DF804FB9DF807009DF806309DF8052057
:104CE800A0F5807003EB00209DF8043002EB002053
:104CF80003EB002003B05DF804FB00BF00B583B0F0
:104D080089B280B201AB0222FFF7ACFF20B14FF6A7
:104D1800FF7003B05DF804FB9DF805009DF80430B2
:104D280003EB002080B203B05DF804FB30B51446F5
:104D380083B0150A89B201AB022280B28DF8044013
:104D48008DF80550FFF762FF03B030BD70B514460B
:104D580082B04FEA122E160C150E89B201AB04224E
:104D680080B28DF804408DF805E08DF806608DF866
:104D78000750FFF74BFF02B070BD00BF10B50446E7
:104D880000210420FFF798FF54B9094B0340094C50
:104D98001A46236200210420BDE81040FFF7D6BF61
:104DA800054A04F4FF7343F0010302401343EEE79E
:104DB800FEFF47F0600B002001FE47F0024602218B
:104DC8000320FFF7B3BF00BF0346082200210120DC
:104DD800FFF71CBF0346082200210120FFF742BF4E
:104DE80030B583B002AC04F8040D050A234602224C
:104DF80004212D208DF80550FFF708FF03252346D1
:104E0800012206212D208DF80450FFF7FFFE2346CE
:104E18000122002406212D208DF80440FFF7F6FE1C
:104E28000A212D20FFF748FF03B030BD30B583B00D
:104E380002AC002304F8043D234602250122022186
:104E48002C20FFF7E3FE2346294601222C208DF86B
:104E58000450FFF7DBFE03B030BD00BFFFF7E6BF2D
:104E680010B50C4682B0024600212C20FFF75EFFE9
:104E780002AB03F8044D012206212C20FFF7C6FEE1
:104E880002B010BD10B5044604213620FFF714FF08
:104E98003CB9BDE8104020F4006204213620FFF739
:104EA80055BF40F4006204213620BDE81040FFF7EA
:104EB8004DBF00BF10B5044682B06D2202AB03F8A7
:104EC800012D40F6060101222E20FFF79FFE44B96E
:104ED80041F2076241F606012E20FFF727FF02B0D4
:104EE80010BD40F2076241F606012E20FFF71EFFB3
:104EF80002B010BD30B583B002AB012403F8044DF5
:104F080003250222002136208DF80550FFF77EFE8A
:104F18004FF4004206212D20FFF708FF4FF47A7066
:104F2800FFF742F9204600F0F1F9002003B030BD48
:104F380070B5044682B002AB012503F8045D032670
:104F48000222002136208DF80560FFF75FFE62011E
:104F580002F060022A4312212D20FFF7E7FE2846BF
:104F680000F0D4F902B070BD10B5002104461A2033
:104F7800FFF7A2FE000D0005C4F31302024300214F
:104F88001A20BDE81040FFF7E1BE00BF014B98674B
:104F9800D9677047600B00202DE97041A64C0023AB
:104FA800627F83B019460F2084F85E2084F8583059
:104FB800FFF782FE42050546606541D5667F002EF3
:104FC80078D06B043ED515F4801640F08E803146BB
:104FD8001020FFF793FE994B80463146022211209C
:104FE800FFF740FE637B002B00F0BD80C8F3090883
:104FF80015F00801A4F85A808F4A08D092F85C305E
:1050080003F0200303F0FF00002B00F0DF8084F89A
:1050180059100026617F022384F85830DFF818827F
:10502800002940F0A38005F4DE4232430F20FFF749
:105038008DFED8F87C305BB308F15400984727E020
:10504800420428D415F0800173D115F400325DD1E3
:105058007B4A2A40E2B100210F20FFF777FE236A3E
:105068000022980084F86D2040F1D28000F014FBF3
:10507800E90400F1A7802A0400F1CD80EB0340F198
:10508800CE80092384F85830E36F0BB16D489847F8
:1050980003B0BDE87081236A990047D500F0FCFA97
:1050A800E36F0021032284F86D1084F85820002B48
:1050B800ECD1EDE700F46063B3F5606F81D000F0E8
:1050C80005FA00F0E9FA236A05F0F8089B0000F1F8
:1050D8009880E36F032284F8582013B104F1540038
:1050E8009847280625D44546B2E700F0EFF900F0C6
:1050F800D3FA236A50489D005DD4C36F032280F819
:105108005820002BC4D054309847C1E70F20FFF730
:105118001DFEE36F042284F858200BB149489847D4
:10512800002384F86D3003B0BDE8708100F0CEF93B
:10513800B4E7F82200210F20FFF708FE94F8592061
:105148003D4B4AB15A7F002183F8591022B993F890
:105158006D300BB100F0BAF9A36F012284F8582022
:10516800002B93D194E708F07F0841E74FF0010E38
:10517800032172460DF106030F208DF807E0FFF7B3
:1051880071FD9DF8061081EA410111F0800131D0CE
:10519800216A11F0005127D0E36F0BB129489847D5
:1051A80000F08CF9C0B100F091F900F075FA236AAB
:1051B8009C007FF56DAF4FF4807200210D20FFF742
:1051C800B5FD65E7082384F858305DE782F8590093
:1051D80082F86D0008261DE70DF10703012203215F
:1051E8000D20FFF713FD53E74FF480720D20FFF7F2
:1051F8009DFDD1E705F4C04232430F20FFF7A6FD1D
:10520800C6E731464FF480720D20FFF78FFD68E73F
:1052180000F05CF92AE7032384F8583034E76E017C
:1052280003D50A2384F858302EE7AD02F3D50B23B3
:1052380084F8583028E700BF600B0020BC0B002022
:1052480000902724B40B002070B582B001AD10F097
:10525800010604462B464FF0020225D1314626208E
:10526800FFF700FD9DF805303146022223F01406B1
:1052780026202B468DF80560FFF7C8FCA30711D53B
:105288000F242B4601222A2136208DF80440FFF7EF
:10529800BDFC00242B4601222A2136208DF804402B
:1052A800FFF7B4FC02B070BD00212620FFF7DAFC3E
:1052B8009DF8051002AB21F03C01012241F01401D8
:1052C80003F8031D26201146FFF7A0FC2B460122F8
:1052D80002213620FFF7C6FC9DF804602B4666F0D5
:1052E8007B060122022136208DF80460FFF78EFC30
:1052F80001264FF0100E2B460222282136208DF869
:1053080004E08DF80560FFF781FCB7E710B50446A7
:1053180082B001AB022200213620FFF7A3FC0D2C3E
:105328000ED8DFE804F0252E380D0D0D0D41500D77
:105338000D075D1C9DF8053043F002038DF805301C
:1053480001AB012200213620FFF760FC0122114643
:105358000DF105033620FFF759FC02B010BD9DF88A
:10536800043023F0300343F020038DF80430E7E7DE
:105378009DF8043023F0030343F001038DF8043053
:10538800DEE79DF80530002223F001038DF8053093
:105398008DF80420D4E79DF8043023F0030343F08C
:1053A80002038DF80430CBE79DF804309DF8052002
:1053B80023F04C0343F0480362F07F028DF8043079
:1053C8008DF80520BCE79DF804209DF8053022F0F3
:1053D8004C0203F07F038DF804208DF80530AFE709
:1053E8009DF8053023F002038DF80530A8E700BFCB
:1053F80008B50020FFF78AFFBDE808400022042115
:105408003620FFF793BC00BF024601210A20FFF7B0
:105418009DBC00BF70B500F0020282B0044632BBEA
:1054280002F0FF030DF1070614F0010412D043F057
:1054380006040122334600210D208DF80740FFF7AE
:10544800E5FB03210F20FFF759FC10F481601FD101
:1054580002B070BD43F002050122334621460D20FB
:105468008DF80750FFF7D2FB204602B070BD02AEA0
:10547800802306F8013D3346012200210D20FFF765
:10548800C5FB0D4A01219DF8073082F86D10CBE766
:1054980033460122002140240D208DF80740FFF7F4
:1054A800B5FB0020FFF7EEFC034B002283F86D20CC
:1054B8004FF0FF30CCE700BF600B002008B5022199
:1054C8000F20FFF71BFC00F0100008BD70B582B07C
:1054D800402302AC00210E2004F8013DFFF7ECFB4D
:1054E800064603F00BFF0546002211460E20FFF783
:1054F8002DFC2346012200210D20FFF787FB0A4AD5
:1055080000210F20FFF722FC00F012F8324600219C
:105518000E20FFF71BFC284603F004FF034B002274
:1055280083F86D2002B070BDF8FF2724600B0020BF
:1055380000B583B00DF10603012203210F20FFF708
:1055480091FB9DF8063083EA43031B0607D502AB9F
:10555800012203F8012D03210D20FFF757FB03B0AB
:105568005DF804FB30B5044683B000258DF807507C
:10557800FFF7DEFFACB14FF4407229460D20FFF76C
:10558800D5FB0DF10703012203210F20FFF76AFB6A
:105598009DF8073003F0080303F0FF0053B903B088
:1055A80030BD4FF4807221460D20FFF7BFFB204627
:1055B80003B030BDFFF78AFF29464FF480720D20F3
:1055C800FFF7B4FB4FF0FF30E9E700BF70B50446C2
:1055D80082B00DF10703012203210420FFF742FBEB
:1055E8009CB9124E9DF80740326A0DF1070322F06C
:1055F800805524F0100401220321042035628DF81F
:105608000740FFF703FB02B070BD084E2246002199
:105618000C20FFF78BFB9DF80740326A0DF107035A
:1056280042F0805544F01004E5E700BF600B00200D
:1056380070B50E46054603F061FE002104460E20B3
:10564800FFF73AFB56B920EA050200210E20FFF7C2
:105658007DFB2046BDE8704003F064BE40EA0502C9
:10566800F3E700BF30B5054683B002AC022304F867
:10567800013D2346012200212F20FFF7C7FA45B13B
:10568800012523462A4600212F208DF80750FFF7D1
:10569800BDFA03B030BD00BF10B582B002ACE02344
:1056A80004F8013D2346012203213620FFF7AEFA14
:1056B80023460122F024032136208DF80740FFF706
:1056C800A5FA02B010BD00BF70B582B002AC0025CB
:1056D80004F8045DFFF78CFE2A4629462C20FFF7C4
:1056E80025FB2346012206212C20FFF78FFAFFF71E
:1056F8009DFB2346012203213620FFF7B3FA9DF8CC
:10570800046023460122032106F00F0636208DF897
:105718000460FFF77BFA4FF47A70FEF745FD9DF8B9
:1057280004202346032162F00F04362001228DF85D
:105738000440FFF76BFA024B83F86D5002B070BD5E
:10574800600B002010B5044682B00DF1070301225A
:105758000E212B20FFF786FA9DF8072004F01F047E
:1057680022F01F0214430DF1070301220E212B2002
:105778008DF80740FFF74AFA02B010BD2DE97043D3
:10578800814690461E460C4603F0B8FD164B102283
:105798005A61B9F1000F0ED0144D2146AE4604EB04
:1057A800090211F8013BAB812C89E407FCD58A4238
:1057B800BEF80C30F5D1B8F1000F0DD00B493346C7
:1057C8000D4606EB080413F8012B8A810A89D207D3
:1057D800FCD5A342AA89F6D1034B10221A6103F023
:1057E800A1FD0020BDE870830008014000300140A1
:1057F8002DE97043814690461E460C4603F07EFD17
:10580800174B10225A61B9F1000F0FD0154D2146E0
:10581800AE4604EB090211F8013BAB812C89E40781
:10582800FCD5BEF80C3091423370F4D1B8F1000FBA
:105838000ED00C4933460C464FF00005B0448D811C
:105848000A89D207FCD5A28903F8012B9845F6D11D
:10585800034B10221A6103F065FD0020BDE8708338
:1058680000080140003001402DE978410646154600
:10587800002937D101284FD030480C464FF4006139
:1058880000F044F94FF480512C4800F03FF9002E05
:1058980036D0A046013D002415F8011F284806F01F
:1058A8006BFD0121264806F0A1FD0028F9D001343E
:1058B800234806F06FFDB442EED34FF400611F4851
:1058C80000F024F94FF480511C4800F011F9B8F1A8
:1058D800000F01D1BDE878814FF4FA60BDE8784146
:1058E800FEF762BC4FF40061144800F001F94FF470
:1058F8008051124800F00AF94FF00008002EC9D173
:105908004FF400610D4800F001F9BDE878414FF40B
:1059180080510A4800F0ECB814784FF4006114F094
:105928000308064818BF4FF0010800F0EFF84FF4DD
:105938008051024800F0EAF8ACE700BF000C0140D3
:105948000038004080B489B000AF78603960002327
:10595800FB6100233B610023BB610023FB60002344
:105968007B610023BB603B68DB7803F00F03FB61BE
:105978003B68DB7803F01003002B05D03B689B786D
:105988001A46FB691343FB613B681B88DBB2002B9B
:1059980044D07B681B687B610023BB6138E001222F
:1059A800BB6902FA03F3FB603B681B881A46FB6875
:1059B80013403B613A69FB689A4226D1BB699B0058
:1059C800FB600F22FB6802FA03F3BB60BB68DB4392
:1059D8007A6913407B61FA69FB6802FA03F37A6912
:1059E80013437B613B68DB78282B05D10122BB6917
:1059F8009A407B685A6108E03B68DB78482B04D101
:105A08000122BB699A407B681A61BB690133BB619B
:105A1800BB69072BC3D97B687A691A603B681B8806
:105A2800FF2B46D97B685B687B610023BB613AE04A
:105A3800BB690833012202FA03F3FB603B681B8849
:105A48001A46FB6813403B613A69FB689A4227D1C2
:105A5800BB699B00FB600F22FB6802FA03F3BB6083
:105A6800BB68DB437A6913407B61FA69FB6802FA19
:105A780003F37A6913437B613B68DB78282B05D1F4
:105A8800BB69083301229A407B685A613B68DB781E
:105A9800482B05D1BB69083301229A407B681A61FB
:105AA800BB690133BB61BB69072BC1D97B687A69C4
:105AB8005A6000BF2437BD4680BC704780B485B0AB
:105AC80000AF78600B467B800023FB737B689A6885
